{
	"_format": "hh-sol-artifact-1",
	"contractName": "Dauction",
	"sourceName": "contracts/Dauction.sol",
	"abi": [
		{
			"inputs": [
				{
					"components": [
						{
							"internalType": "address",
							"name": "token",
							"type": "address"
						},
						{
							"internalType": "address",
							"name": "priceFeed",
							"type": "address"
						}
					],
					"internalType": "struct Dauction.BidTokens[]",
					"name": "bidTokensArray",
					"type": "tuple[]"
				},
				{
					"internalType": "address",
					"name": "_USDT",
					"type": "address"
				}
			],
			"stateMutability": "nonpayable",
			"type": "constructor"
		},
		{
			"anonymous": false,
			"inputs": [
				{
					"indexed": false,
					"internalType": "address",
					"name": "nft",
					"type": "address"
				},
				{
					"indexed": false,
					"internalType": "uint256",
					"name": "tokenId",
					"type": "uint256"
				},
				{
					"indexed": false,
					"internalType": "address",
					"name": "seller",
					"type": "address"
				},
				{
					"indexed": false,
					"internalType": "uint256",
					"name": "minBidPrice",
					"type": "uint256"
				},
				{
					"indexed": false,
					"internalType": "uint256",
					"name": "startTime",
					"type": "uint256"
				},
				{
					"indexed": false,
					"internalType": "uint256",
					"name": "endTime",
					"type": "uint256"
				},
				{
					"indexed": false,
					"internalType": "uint256",
					"name": "revealDuration",
					"type": "uint256"
				},
				{
					"indexed": false,
					"internalType": "uint256",
					"name": "auctionCreatedAt",
					"type": "uint256"
				}
			],
			"name": "AuctionCreated",
			"type": "event"
		},
		{
			"anonymous": false,
			"inputs": [
				{
					"indexed": false,
					"internalType": "address",
					"name": "nftAddress",
					"type": "address"
				},
				{
					"indexed": false,
					"internalType": "uint256",
					"name": "tokenId",
					"type": "uint256"
				},
				{
					"indexed": false,
					"internalType": "address",
					"name": "previousOwner",
					"type": "address"
				},
				{
					"indexed": false,
					"internalType": "address",
					"name": "newOwner",
					"type": "address"
				},
				{
					"indexed": false,
					"internalType": "uint256",
					"name": "tokenAmountPaid",
					"type": "uint256"
				}
			],
			"name": "AuctionSettled",
			"type": "event"
		},
		{
			"anonymous": false,
			"inputs": [
				{
					"indexed": false,
					"internalType": "address",
					"name": "nftAddress",
					"type": "address"
				},
				{
					"indexed": false,
					"internalType": "uint256",
					"name": "tokenId",
					"type": "uint256"
				},
				{
					"indexed": false,
					"internalType": "address",
					"name": "owner",
					"type": "address"
				},
				{
					"indexed": false,
					"internalType": "uint256",
					"name": "time",
					"type": "uint256"
				}
			],
			"name": "AuctionUnsettled",
			"type": "event"
		},
		{
			"anonymous": false,
			"inputs": [
				{
					"indexed": false,
					"internalType": "address",
					"name": "nftContractAddress",
					"type": "address"
				},
				{
					"indexed": false,
					"internalType": "uint256",
					"name": "tokenId",
					"type": "uint256"
				},
				{
					"indexed": false,
					"internalType": "bytes32",
					"name": "bidCommitment",
					"type": "bytes32"
				},
				{
					"indexed": false,
					"internalType": "uint256",
					"name": "biddedAt",
					"type": "uint256"
				}
			],
			"name": "BidCreated",
			"type": "event"
		},
		{
			"anonymous": false,
			"inputs": [
				{
					"indexed": false,
					"internalType": "address",
					"name": "tokenContract",
					"type": "address"
				},
				{
					"indexed": false,
					"internalType": "uint256",
					"name": "tokenId",
					"type": "uint256"
				},
				{
					"indexed": false,
					"internalType": "bytes32",
					"name": "bidHash",
					"type": "bytes32"
				},
				{
					"indexed": false,
					"internalType": "address",
					"name": "bidder",
					"type": "address"
				},
				{
					"indexed": false,
					"internalType": "bytes32",
					"name": "salt",
					"type": "bytes32"
				},
				{
					"indexed": false,
					"internalType": "uint256",
					"name": "bidValue",
					"type": "uint256"
				}
			],
			"name": "BidRevealed",
			"type": "event"
		},
		{
			"inputs": [],
			"name": "MIN_AUCTION_PERIOD",
			"outputs": [
				{
					"internalType": "uint256",
					"name": "",
					"type": "uint256"
				}
			],
			"stateMutability": "view",
			"type": "function"
		},
		{
			"inputs": [
				{
					"internalType": "address",
					"name": "",
					"type": "address"
				},
				{
					"internalType": "uint256",
					"name": "",
					"type": "uint256"
				}
			],
			"name": "auctions",
			"outputs": [
				{
					"internalType": "address payable",
					"name": "owner",
					"type": "address"
				},
				{
					"internalType": "uint256",
					"name": "startTime",
					"type": "uint256"
				},
				{
					"internalType": "uint256",
					"name": "minBidPrice",
					"type": "uint256"
				},
				{
					"internalType": "uint256",
					"name": "endTime",
					"type": "uint256"
				},
				{
					"internalType": "uint256",
					"name": "revealDuration",
					"type": "uint256"
				},
				{
					"internalType": "enum Dauction.AuctionStatus",
					"name": "auctionStatus",
					"type": "uint8"
				}
			],
			"stateMutability": "view",
			"type": "function"
		},
		{
			"inputs": [
				{
					"internalType": "address",
					"name": "",
					"type": "address"
				}
			],
			"name": "bidTokenToPriceFeed",
			"outputs": [
				{
					"internalType": "address",
					"name": "",
					"type": "address"
				}
			],
			"stateMutability": "view",
			"type": "function"
		},
		{
			"inputs": [
				{
					"internalType": "uint256",
					"name": "",
					"type": "uint256"
				}
			],
			"name": "bidTokens",
			"outputs": [
				{
					"internalType": "address",
					"name": "token",
					"type": "address"
				},
				{
					"internalType": "address",
					"name": "priceFeed",
					"type": "address"
				}
			],
			"stateMutability": "view",
			"type": "function"
		},
		{
			"inputs": [
				{
					"internalType": "address",
					"name": "_priceFeed",
					"type": "address"
				},
				{
					"internalType": "uint256",
					"name": "bidAmount",
					"type": "uint256"
				}
			],
			"name": "calculateBasePrice",
			"outputs": [
				{
					"internalType": "uint256",
					"name": "",
					"type": "uint256"
				}
			],
			"stateMutability": "view",
			"type": "function"
		},
		{
			"inputs": [
				{
					"internalType": "address",
					"name": "_bidToken",
					"type": "address"
				}
			],
			"name": "checkBidTokenUSDTEquivalence",
			"outputs": [
				{
					"internalType": "bool",
					"name": "",
					"type": "bool"
				}
			],
			"stateMutability": "view",
			"type": "function"
		},
		{
			"inputs": [
				{
					"internalType": "address",
					"name": "_nftAddress",
					"type": "address"
				},
				{
					"internalType": "uint256",
					"name": "_tokenId",
					"type": "uint256"
				},
				{
					"internalType": "uint256",
					"name": "_minBidPrice",
					"type": "uint256"
				},
				{
					"internalType": "uint256",
					"name": "_startTime",
					"type": "uint256"
				},
				{
					"internalType": "uint256",
					"name": "_endTime",
					"type": "uint256"
				},
				{
					"internalType": "uint256",
					"name": "_revealDuration",
					"type": "uint256"
				}
			],
			"name": "createAuction",
			"outputs": [],
			"stateMutability": "nonpayable",
			"type": "function"
		},
		{
			"inputs": [
				{
					"internalType": "address",
					"name": "nftContractAddress",
					"type": "address"
				},
				{
					"internalType": "uint256",
					"name": "tokenId",
					"type": "uint256"
				},
				{
					"internalType": "bytes32",
					"name": "bidCommitment",
					"type": "bytes32"
				},
				{
					"internalType": "address",
					"name": "bidToken",
					"type": "address"
				}
			],
			"name": "createBid",
			"outputs": [],
			"stateMutability": "nonpayable",
			"type": "function"
		},
		{
			"inputs": [
				{
					"internalType": "address",
					"name": "nftAddress",
					"type": "address"
				},
				{
					"internalType": "uint256",
					"name": "tokenId",
					"type": "uint256"
				}
			],
			"name": "getAuctionStatus",
			"outputs": [
				{
					"internalType": "string",
					"name": "_auctionStatus",
					"type": "string"
				}
			],
			"stateMutability": "view",
			"type": "function"
		},
		{
			"inputs": [
				{
					"internalType": "address",
					"name": "nftAddress",
					"type": "address"
				},
				{
					"internalType": "uint256",
					"name": "tokenId",
					"type": "uint256"
				},
				{
					"internalType": "address",
					"name": "bidder",
					"type": "address"
				}
			],
			"name": "getBid",
			"outputs": [
				{
					"components": [
						{
							"internalType": "uint256",
							"name": "amountBidded",
							"type": "uint256"
						},
						{
							"internalType": "bytes32",
							"name": "bidCommitHash",
							"type": "bytes32"
						},
						{
							"internalType": "address",
							"name": "bidToken",
							"type": "address"
						}
					],
					"internalType": "struct Dauction.Bid",
					"name": "",
					"type": "tuple"
				}
			],
			"stateMutability": "view",
			"type": "function"
		},
		{
			"inputs": [],
			"name": "getBidTokens",
			"outputs": [
				{
					"components": [
						{
							"internalType": "address",
							"name": "token",
							"type": "address"
						},
						{
							"internalType": "address",
							"name": "priceFeed",
							"type": "address"
						}
					],
					"internalType": "struct Dauction.BidTokens[]",
					"name": "",
					"type": "tuple[]"
				}
			],
			"stateMutability": "view",
			"type": "function"
		},
		{
			"inputs": [
				{
					"internalType": "address",
					"name": "nftAddress",
					"type": "address"
				},
				{
					"internalType": "uint256",
					"name": "tokenId",
					"type": "uint256"
				}
			],
			"name": "getBidders",
			"outputs": [
				{
					"internalType": "address[]",
					"name": "",
					"type": "address[]"
				}
			],
			"stateMutability": "view",
			"type": "function"
		},
		{
			"inputs": [
				{
					"internalType": "address",
					"name": "_priceFeed",
					"type": "address"
				}
			],
			"name": "getLatestPrice",
			"outputs": [
				{
					"internalType": "int256",
					"name": "",
					"type": "int256"
				},
				{
					"internalType": "uint8",
					"name": "",
					"type": "uint8"
				}
			],
			"stateMutability": "view",
			"type": "function"
		},
		{
			"inputs": [
				{
					"internalType": "address",
					"name": "nftAddress",
					"type": "address"
				},
				{
					"internalType": "uint256",
					"name": "tokenId",
					"type": "uint256"
				}
			],
			"name": "getMinBidPrice",
			"outputs": [
				{
					"internalType": "uint256",
					"name": "",
					"type": "uint256"
				}
			],
			"stateMutability": "view",
			"type": "function"
		},
		{
			"inputs": [
				{
					"internalType": "address",
					"name": "nftAddress",
					"type": "address"
				},
				{
					"internalType": "uint256",
					"name": "tokenId",
					"type": "uint256"
				},
				{
					"internalType": "uint256",
					"name": "bidValue",
					"type": "uint256"
				},
				{
					"internalType": "bytes32",
					"name": "salt",
					"type": "bytes32"
				}
			],
			"name": "revealBid",
			"outputs": [],
			"stateMutability": "nonpayable",
			"type": "function"
		},
		{
			"inputs": [
				{
					"internalType": "address",
					"name": "nftAddress",
					"type": "address"
				},
				{
					"internalType": "uint256",
					"name": "tokenId",
					"type": "uint256"
				}
			],
			"name": "settleAuction",
			"outputs": [],
			"stateMutability": "nonpayable",
			"type": "function"
		},
		{
			"inputs": [],
			"name": "totalAuctions",
			"outputs": [
				{
					"internalType": "uint256",
					"name": "",
					"type": "uint256"
				}
			],
			"stateMutability": "view",
			"type": "function"
		}
	],
	"bytecode": "0x60a06040523480156200001157600080fd5b5060405162004c1c38038062004c1c833981810160405281019062000037919062000727565b60016000819055506200004962000495565b60005b83518110156200028b578381815181106200006c576200006b6200078d565b5b602002602001015160200151600160008684815181106200009257620000916200078d565b5b60200260200101516000015173ffffffffffffffffffffffffffffffffffffffff1673ffffffffffffffffffffffffffffffffffffffff16815260200190815260200160002060006101000a81548173ffffffffffffffffffffffffffffffffffffffff021916908373ffffffffffffffffffffffffffffffffffffffff160217905550620001836040518060400160405280600881526020017f746f6b656e2025730000000000000000000000000000000000000000000000008152508583815181106200016657620001656200078d565b5b602002602001015160000151620003c660201b6200224d1760201c565b620001f06040518060400160405280601381526020017f6e616d6520636f6e7374727563746f7220257300000000000000000000000000815250858381518110620001d357620001d26200078d565b5b602002602001015160200151620003c660201b6200224d1760201c565b60405180604001604052808583815181106200021157620002106200078d565b5b60200260200101516000015173ffffffffffffffffffffffffffffffffffffffff1681526020018583815181106200024e576200024d6200078d565b5b60200260200101516020015173ffffffffffffffffffffffffffffffffffffffff16815250915080806200028290620007f5565b9150506200004c565b50600281908060018154018082558091505060019003906000526020600020906002020160009091909190915060008201518160000160006101000a81548173ffffffffffffffffffffffffffffffffffffffff021916908373ffffffffffffffffffffffffffffffffffffffff16021790555060208201518160010160006101000a81548173ffffffffffffffffffffffffffffffffffffffff021916908373ffffffffffffffffffffffffffffffffffffffff16021790555050508173ffffffffffffffffffffffffffffffffffffffff1660808173ffffffffffffffffffffffffffffffffffffffff168152505033600560006101000a81548173ffffffffffffffffffffffffffffffffffffffff021916908373ffffffffffffffffffffffffffffffffffffffff16021790555050505062000910565b620004688282604051602401620003df929190620008dc565b6040516020818303038152906040527f319af333000000000000000000000000000000000000000000000000000000007bffffffffffffffffffffffffffffffffffffffffffffffffffffffff19166020820180517bffffffffffffffffffffffffffffffffffffffffffffffffffffffff83818316178352505050506200046c60201b60201c565b5050565b60008151905060006a636f6e736f6c652e6c6f679050602083016000808483855afa5050505050565b6040518060400160405280600073ffffffffffffffffffffffffffffffffffffffff168152602001600073ffffffffffffffffffffffffffffffffffffffff1681525090565b6000604051905090565b600080fd5b600080fd5b600080fd5b6000601f19601f8301169050919050565b7f4e487b7100000000000000000000000000000000000000000000000000000000600052604160045260246000fd5b6200053f82620004f4565b810181811067ffffffffffffffff8211171562000561576200056062000505565b5b80604052505050565b600062000576620004db565b905062000584828262000534565b919050565b600067ffffffffffffffff821115620005a757620005a662000505565b5b602082029050602081019050919050565b600080fd5b600080fd5b600073ffffffffffffffffffffffffffffffffffffffff82169050919050565b6000620005ef82620005c2565b9050919050565b6200060181620005e2565b81146200060d57600080fd5b50565b6000815190506200062181620005f6565b92915050565b60006040828403121562000640576200063f620005bd565b5b6200064c60406200056a565b905060006200065e8482850162000610565b6000830152506020620006748482850162000610565b60208301525092915050565b600062000697620006918462000589565b6200056a565b90508083825260208201905060408402830185811115620006bd57620006bc620005b8565b5b835b81811015620006ea5780620006d5888262000627565b845260208401935050604081019050620006bf565b5050509392505050565b600082601f8301126200070c576200070b620004ef565b5b81516200071e84826020860162000680565b91505092915050565b60008060408385031215620007415762000740620004e5565b5b600083015167ffffffffffffffff811115620007625762000761620004ea565b5b6200077085828601620006f4565b9250506020620007838582860162000610565b9150509250929050565b7f4e487b7100000000000000000000000000000000000000000000000000000000600052603260045260246000fd5b7f4e487b7100000000000000000000000000000000000000000000000000000000600052601160045260246000fd5b6000819050919050565b60006200080282620007eb565b91507fffffffffffffffffffffffffffffffffffffffffffffffffffffffffffffffff8203620008375762000836620007bc565b5b600182019050919050565b600081519050919050565b600082825260208201905092915050565b60005b838110156200087e57808201518184015260208101905062000861565b60008484015250505050565b6000620008978262000842565b620008a381856200084d565b9350620008b58185602086016200085e565b620008c081620004f4565b840191505092915050565b620008d681620005e2565b82525050565b60006040820190508181036000830152620008f881856200088a565b9050620009096020830184620008cb565b9392505050565b6080516142f06200092c600039600061064f01526142f06000f3fe608060405234801561001057600080fd5b506004361061010b5760003560e01c80635138b08c116100a2578063b34171b511610071578063b34171b5146102f6578063c2e0e7e014610326578063d59feb6a14610342578063e6f7fbd414610360578063f8a206fa146103915761010b565b80635138b08c146102845780637887df85146102a0578063791bb4ef146102bc57806398984de6146102d85761010b565b8063194d07ca116100de578063194d07ca146101bf5780631e8a0b32146101ef57806333d31bf51461021f57806344f91c1e1461024f5761010b565b80630d587c1e14610110578063102784981461014057806316002f4a1461017057806316345f181461018e575b600080fd5b61012a6004803603810190610125919061285f565b6103c1565b604051610137919061295d565b60405180910390f35b61015a6004803603810190610155919061285f565b6104ed565b604051610167919061298e565b60405180910390f35b61017861054b565b604051610185919061298e565b60405180910390f35b6101a860048036038101906101a391906129a9565b610551565b6040516101b6929190612a0b565b60405180910390f35b6101d960048036038101906101d491906129a9565b61064b565b6040516101e69190612a4f565b60405180910390f35b6102096004803603810190610204919061285f565b6106b1565b604051610216919061298e565b60405180910390f35b610239600480360381019061023491906129a9565b6106f0565b6040516102469190612a79565b60405180910390f35b6102696004803603810190610264919061285f565b610723565b60405161027b96959493929190612b2c565b60405180910390f35b61029e6004803603810190610299919061285f565b610799565b005b6102ba60048036038101906102b59190612bc3565b610f33565b005b6102d660048036038101906102d19190612c2a565b611350565b005b6102e06117af565b6040516102ed919061298e565b60405180910390f35b610310600480360381019061030b9190612cb7565b6117b5565b60405161031d9190612d6a565b60405180910390f35b610340600480360381019061033b9190612d85565b61191b565b005b61034a611ee6565b6040516103579190612eca565b60405180910390f35b61037a60048036038101906103759190612eec565b611ff1565b604051610388929190612f19565b60405180910390f35b6103ab60048036038101906103a6919061285f565b612065565b6040516103b89190612fd2565b60405180910390f35b60606000600460008573ffffffffffffffffffffffffffffffffffffffff1673ffffffffffffffffffffffffffffffffffffffff168152602001908152602001600020600084815260200190815260200160002060070180548060200260200160405190810160405280929190818152602001828054801561049857602002820191906000526020600020905b8160009054906101000a900473ffffffffffffffffffffffffffffffffffffffff1673ffffffffffffffffffffffffffffffffffffffff168152602001906001019080831161044e575b5050505050905060008151036104e3576040517f08c379a00000000000000000000000000000000000000000000000000000000081526004016104da90613040565b60405180910390fd5b8091505092915050565b6000600460008473ffffffffffffffffffffffffffffffffffffffff1673ffffffffffffffffffffffffffffffffffffffff168152602001908152602001600020600083815260200190815260200160002060020154905092915050565b60035481565b60008060008373ffffffffffffffffffffffffffffffffffffffff1663feaf968c6040518163ffffffff1660e01b815260040160a060405180830381865afa1580156105a1573d6000803e3d6000fd5b505050506040513d601f19601f820116820180604052508101906105c591906130e3565b50505091505060008473ffffffffffffffffffffffffffffffffffffffff1663313ce5676040518163ffffffff1660e01b8152600401602060405180830381865afa158015610618573d6000803e3d6000fd5b505050506040513d601f19601f8201168201806040525081019061063c919061318a565b90508181935093505050915091565b60007f000000000000000000000000000000000000000000000000000000000000000073ffffffffffffffffffffffffffffffffffffffff168273ffffffffffffffffffffffffffffffffffffffff16146106a75760006106aa565b60015b9050919050565b60008060006106bf85610551565b9150915080600a6106d09190613319565b82856106dc9190613364565b6106e691906133d5565b9250505092915050565b60016020528060005260406000206000915054906101000a900473ffffffffffffffffffffffffffffffffffffffff1681565b6004602052816000526040600020602052806000526040600020600091509150508060000160009054906101000a900473ffffffffffffffffffffffffffffffffffffffff16908060010154908060020154908060030154908060040154908060050160009054906101000a900460ff16905086565b6000600460008473ffffffffffffffffffffffffffffffffffffffff1673ffffffffffffffffffffffffffffffffffffffff168152602001908152602001600020600083815260200190815260200160002090508060000160009054906101000a900473ffffffffffffffffffffffffffffffffffffffff1673ffffffffffffffffffffffffffffffffffffffff163373ffffffffffffffffffffffffffffffffffffffff161461087f576040517f08c379a000000000000000000000000000000000000000000000000000000000815260040161087690613452565b60405180910390fd5b806004015442116108c5576040517f08c379a00000000000000000000000000000000000000000000000000000000081526004016108bc906134be565b60405180910390fd5b60008060008060005b8560070180549050811015610b43578560070181815481106108f3576108f26134de565b5b9060005260206000200160009054906101000a900473ffffffffffffffffffffffffffffffffffffffff16945060008660060160008773ffffffffffffffffffffffffffffffffffffffff1673ffffffffffffffffffffffffffffffffffffffff16815260200190815260200160002060405180606001604052908160008201548152602001600182015481526020016002820160009054906101000a900473ffffffffffffffffffffffffffffffffffffffff1673ffffffffffffffffffffffffffffffffffffffff1673ffffffffffffffffffffffffffffffffffffffff1681525050905060008160000151036109ec5750610b30565b80600001519450600081604001519050610a3b6040518060400160405280601b81526020017f62696420616d6f756e74206265666f72652074656e6172792025730000000000815250876122e9565b6000610a468261064b565b610ab857610ab3600160008473ffffffffffffffffffffffffffffffffffffffff1673ffffffffffffffffffffffffffffffffffffffff16815260200190815260200160002060009054906101000a900473ffffffffffffffffffffffffffffffffffffffff16886106b1565b610aba565b865b9050610ade60405180606001604052806022815260200161429960229139826122e9565b85811115610b2c57610b256040518060400160405280601281526020017f666f726d61747465642070726963652025730000000000000000000000000000815250826122e9565b8095508794505b5050505b8080610b3b9061350d565b9150506108ce565b50600073ffffffffffffffffffffffffffffffffffffffff168173ffffffffffffffffffffffffffffffffffffffff161480610b825750846002015482105b15610ca857338560000160006101000a81548173ffffffffffffffffffffffffffffffffffffffff021916908373ffffffffffffffffffffffffffffffffffffffff16021790555060058560050160006101000a81548160ff02191690836005811115610bf257610bf1612ab5565b5b02179055508673ffffffffffffffffffffffffffffffffffffffff166342842e0e3033896040518463ffffffff1660e01b8152600401610c3493929190613555565b600060405180830381600087803b158015610c4e57600080fd5b505af1158015610c62573d6000803e3d6000fd5b505050507f4c52329b429b6bc14602f8d8e34d003593c51b818a57a24fbc132479501432ad87873342604051610c9b949392919061358c565b60405180910390a1610f2a565b610ce76040518060400160405280601d81526020017f68696768657374206269646465725f5f66726f6d20646175633a2025730000008152508261224d565b60008560060160008373ffffffffffffffffffffffffffffffffffffffff1673ffffffffffffffffffffffffffffffffffffffff16815260200190815260200160002060405180606001604052908160008201548152602001600182015481526020016002820160009054906101000a900473ffffffffffffffffffffffffffffffffffffffff1673ffffffffffffffffffffffffffffffffffffffff1673ffffffffffffffffffffffffffffffffffffffff16815250509050806040015173ffffffffffffffffffffffffffffffffffffffff166323b872dd833384600001516040518463ffffffff1660e01b8152600401610de693929190613555565b6020604051808303816000875af1158015610e05573d6000803e3d6000fd5b505050506040513d601f19601f82011682018060405250810190610e2991906135fd565b50610e4c60405180606001604052806023815260200161427660239139846122e9565b8773ffffffffffffffffffffffffffffffffffffffff166342842e0e30848a6040518463ffffffff1660e01b8152600401610e8993929190613555565b600060405180830381600087803b158015610ea357600080fd5b505af1158015610eb7573d6000803e3d6000fd5b50505050610ec58888612385565b7fd89ac72b811465c6564ec26b5b26028c4682af9011a5f67bd34a50a095d0b13b8888338960000160009054906101000a900473ffffffffffffffffffffffffffffffffffffffff1687604051610f20959493929190613689565b60405180910390a1505b50505050505050565b60008203610f76576040517f08c379a0000000000000000000000000000000000000000000000000000000008152600401610f6d90613728565b60405180910390fd5b6000600460008673ffffffffffffffffffffffffffffffffffffffff1673ffffffffffffffffffffffffffffffffffffffff1681526020019081526020016000206000858152602001908152602001600020905080600301544210158015610fe2575080600401544211155b611021576040517f08c379a0000000000000000000000000000000000000000000000000000000008152600401611018906134be565b60405180910390fd5b60008160060160003373ffffffffffffffffffffffffffffffffffffffff1673ffffffffffffffffffffffffffffffffffffffff16815260200190815260200160002090506000801b8160010154036110af576040517f08c379a00000000000000000000000000000000000000000000000000000000081526004016110a690613794565b60405180910390fd5b60008160020160009054906101000a900473ffffffffffffffffffffffffffffffffffffffff169050848173ffffffffffffffffffffffffffffffffffffffff166370a08231336040518263ffffffff1660e01b81526004016111129190612a79565b602060405180830381865afa15801561112f573d6000803e3d6000fd5b505050506040513d601f19601f8201168201806040525081019061115391906137b4565b1015611194576040517f08c379a000000000000000000000000000000000000000000000000000000000815260040161118b9061382d565b60405180910390fd5b848173ffffffffffffffffffffffffffffffffffffffff1663dd62ed3e33306040518363ffffffff1660e01b81526004016111d0929190612f19565b602060405180830381865afa1580156111ed573d6000803e3d6000fd5b505050506040513d601f19601f8201168201806040525081019061121191906137b4565b1015611252576040517f08c379a000000000000000000000000000000000000000000000000000000000815260040161124990613899565b60405180910390fd5b600061128733878760405160200161126b9291906138fb565b60405160208183030381529060405280519060200120846126ef565b9050826001015481146112cf576040517f08c379a00000000000000000000000000000000000000000000000000000000081526004016112c690613973565b60405180910390fd5b85836000018190555060038460050160006101000a81548160ff02191690836005811115611300576112ff612ab5565b5b02179055507fac1cdcb34c2f43796c50b2d0b00e98133621d7ea7593195241557dac6a5f184e88888333898b60405161133e969594939291906139a2565b60405180910390a15050505050505050565b600260005403611395576040517f08c379a000000000000000000000000000000000000000000000000000000000815260040161138c90613a4f565b60405180910390fd5b600260008190555060008690508073ffffffffffffffffffffffffffffffffffffffff16636352211e876040518263ffffffff1660e01b81526004016113db919061298e565b602060405180830381865afa1580156113f8573d6000803e3d6000fd5b505050506040513d601f19601f8201168201806040525081019061141c9190613a84565b73ffffffffffffffffffffffffffffffffffffffff163373ffffffffffffffffffffffffffffffffffffffff1614611489576040517f08c379a000000000000000000000000000000000000000000000000000000000815260040161148090613afd565b60405180910390fd5b428410156114cc576040517f08c379a00000000000000000000000000000000000000000000000000000000081526004016114c390613b69565b60405180910390fd5b6000851161150f576040517f08c379a000000000000000000000000000000000000000000000000000000000815260040161150690613bd5565b60405180910390fd5b610e108461151d9190613bf5565b83101561155f576040517f08c379a000000000000000000000000000000000000000000000000000000000815260040161155690613c75565b60405180910390fd5b8282116115a1576040517f08c379a000000000000000000000000000000000000000000000000000000000815260040161159890613ce1565b60405180910390fd5b6000600460008973ffffffffffffffffffffffffffffffffffffffff1673ffffffffffffffffffffffffffffffffffffffff16815260200190815260200160002060008881526020019081526020016000209050600081600301541461163c576040517f08c379a000000000000000000000000000000000000000000000000000000000815260040161163390613d4d565b60405180910390fd5b338160000160006101000a81548173ffffffffffffffffffffffffffffffffffffffff021916908373ffffffffffffffffffffffffffffffffffffffff16021790555085816002018190555060018160050160006101000a81548160ff021916908360058111156116b0576116af612ab5565b5b021790555084816001018190555083816003018190555082816004018190555060016003546116df9190613bf5565b6003819055508173ffffffffffffffffffffffffffffffffffffffff166323b872dd33308a6040518463ffffffff1660e01b815260040161172293929190613555565b600060405180830381600087803b15801561173c57600080fd5b505af1158015611750573d6000803e3d6000fd5b505050507fdf179f1d286c93c679334be11420131492ab86e4d75b9598ed0ff17508273b4e888833898560010154898942604051611795989796959493929190613d6d565b60405180910390a150506001600081905550505050505050565b610e1081565b6117bd61274e565b6000600460008673ffffffffffffffffffffffffffffffffffffffff1673ffffffffffffffffffffffffffffffffffffffff16815260200190815260200160002060008581526020019081526020016000209050600081600701805490500361185b576040517f08c379a000000000000000000000000000000000000000000000000000000000815260040161185290613040565b60405180910390fd5b8060060160008473ffffffffffffffffffffffffffffffffffffffff1673ffffffffffffffffffffffffffffffffffffffff16815260200190815260200160002060405180606001604052908160008201548152602001600182015481526020016002820160009054906101000a900473ffffffffffffffffffffffffffffffffffffffff1673ffffffffffffffffffffffffffffffffffffffff1673ffffffffffffffffffffffffffffffffffffffff16815250509150509392505050565b600260005403611960576040517f08c379a000000000000000000000000000000000000000000000000000000000815260040161195790613a4f565b60405180910390fd5b60026000819055506000600460008673ffffffffffffffffffffffffffffffffffffffff1673ffffffffffffffffffffffffffffffffffffffff16815260200190815260200160002060008581526020019081526020016000209050600073ffffffffffffffffffffffffffffffffffffffff168160000160009054906101000a900473ffffffffffffffffffffffffffffffffffffffff1673ffffffffffffffffffffffffffffffffffffffff1603611a4f576040517f08c379a0000000000000000000000000000000000000000000000000000000008152600401611a4690613e37565b60405180910390fd5b600560009054906101000a900473ffffffffffffffffffffffffffffffffffffffff1673ffffffffffffffffffffffffffffffffffffffff163373ffffffffffffffffffffffffffffffffffffffff1603611adf576040517f08c379a0000000000000000000000000000000000000000000000000000000008152600401611ad690613ea3565b60405180910390fd5b6000801b8303611b24576040517f08c379a0000000000000000000000000000000000000000000000000000000008152600401611b1b90613f0f565b60405180910390fd5b600073ffffffffffffffffffffffffffffffffffffffff16600160008473ffffffffffffffffffffffffffffffffffffffff1673ffffffffffffffffffffffffffffffffffffffff16815260200190815260200160002060009054906101000a900473ffffffffffffffffffffffffffffffffffffffff1673ffffffffffffffffffffffffffffffffffffffff16141580611bc45750611bc38261064b565b5b611c03576040517f08c379a0000000000000000000000000000000000000000000000000000000008152600401611bfa90613f7b565b60405180910390fd5b8060010154421015611c4a576040517f08c379a0000000000000000000000000000000000000000000000000000000008152600401611c4190613fe7565b60405180910390fd5b8060000160009054906101000a900473ffffffffffffffffffffffffffffffffffffffff1673ffffffffffffffffffffffffffffffffffffffff163373ffffffffffffffffffffffffffffffffffffffff1603611cdc576040517f08c379a0000000000000000000000000000000000000000000000000000000008152600401611cd390614053565b60405180910390fd5b4281600301541015611d23576040517f08c379a0000000000000000000000000000000000000000000000000000000008152600401611d1a906140bf565b60405180910390fd5b60008160060160003373ffffffffffffffffffffffffffffffffffffffff1673ffffffffffffffffffffffffffffffffffffffff16815260200190815260200160002090506000801b816001015414611db1576040517f08c379a0000000000000000000000000000000000000000000000000000000008152600401611da89061412b565b60405180910390fd5b611dbc3385856126ef565b816001018190555060028260050160006101000a81548160ff02191690836005811115611dec57611deb612ab5565b5b0217905550828160020160006101000a81548173ffffffffffffffffffffffffffffffffffffffff021916908373ffffffffffffffffffffffffffffffffffffffff16021790555081600701339080600181540180825580915050600190039060005260206000200160009091909190916101000a81548173ffffffffffffffffffffffffffffffffffffffff021916908373ffffffffffffffffffffffffffffffffffffffff1602179055507fe86a7bf4f8980619e10345099db4bf2d07da85bf499e37fd7ecb0b5df95c62d886868642604051611ece949392919061414b565b60405180910390a15050600160008190555050505050565b60606002805480602002602001604051908101604052809291908181526020016000905b82821015611fe857838290600052602060002090600202016040518060400160405290816000820160009054906101000a900473ffffffffffffffffffffffffffffffffffffffff1673ffffffffffffffffffffffffffffffffffffffff1673ffffffffffffffffffffffffffffffffffffffff1681526020016001820160009054906101000a900473ffffffffffffffffffffffffffffffffffffffff1673ffffffffffffffffffffffffffffffffffffffff1673ffffffffffffffffffffffffffffffffffffffff168152505081526020019060010190611f0a565b50505050905090565b6002818154811061200157600080fd5b90600052602060002090600202016000915090508060000160009054906101000a900473ffffffffffffffffffffffffffffffffffffffff16908060010160009054906101000a900473ffffffffffffffffffffffffffffffffffffffff16905082565b60606000600460008573ffffffffffffffffffffffffffffffffffffffff1673ffffffffffffffffffffffffffffffffffffffff168152602001908152602001600020600084815260200190815260200160002060050160009054906101000a900460ff1660058111156120dc576120db612ab5565b5b905060008160ff1603612126576040518060400160405280600a81526020017f556e61737369676e6564000000000000000000000000000000000000000000008152509150612246565b60018160ff160361216e576040518060400160405280600981526020017f496e6974696174656400000000000000000000000000000000000000000000008152509150612245565b60028160ff16036121b6576040518060400160405280600681526020017f42696464656400000000000000000000000000000000000000000000000000008152509150612244565b60038160ff16036121fe576040518060400160405280600881526020017f45786563757465640000000000000000000000000000000000000000000000008152509150612243565b60048160ff1603612242576040518060400160405280600a81526020017f556e65786563757465640000000000000000000000000000000000000000000081525091505b5b5b5b5b5092915050565b6122e58282604051602401612263929190614190565b6040516020818303038152906040527f319af333000000000000000000000000000000000000000000000000000000007bffffffffffffffffffffffffffffffffffffffffffffffffffffffff19166020820180517bffffffffffffffffffffffffffffffffffffffffffffffffffffffff8381831617835250505050612725565b5050565b61238182826040516024016122ff9291906141c0565b6040516020818303038152906040527fb60e72cc000000000000000000000000000000000000000000000000000000007bffffffffffffffffffffffffffffffffffffffffffffffffffffffff19166020820180517bffffffffffffffffffffffffffffffffffffffffffffffffffffffff8381831617835250505050612725565b5050565b6000600460008473ffffffffffffffffffffffffffffffffffffffff1673ffffffffffffffffffffffffffffffffffffffff168152602001908152602001600020600083815260200190815260200160002090508060000160009054906101000a900473ffffffffffffffffffffffffffffffffffffffff1673ffffffffffffffffffffffffffffffffffffffff163373ffffffffffffffffffffffffffffffffffffffff161461246b576040517f08c379a000000000000000000000000000000000000000000000000000000000815260040161246290613452565b60405180910390fd5b60008160060160008073ffffffffffffffffffffffffffffffffffffffff1673ffffffffffffffffffffffffffffffffffffffff16815260200190815260200160002060405180606001604052908160008201548152602001600182015481526020016002820160009054906101000a900473ffffffffffffffffffffffffffffffffffffffff1673ffffffffffffffffffffffffffffffffffffffff1673ffffffffffffffffffffffffffffffffffffffff1681525050905060005b826007018054905081101561262a5781836006016000856007018481548110612554576125536134de565b5b9060005260206000200160009054906101000a900473ffffffffffffffffffffffffffffffffffffffff1673ffffffffffffffffffffffffffffffffffffffff1673ffffffffffffffffffffffffffffffffffffffff168152602001908152602001600020600082015181600001556020820151816001015560408201518160020160006101000a81548173ffffffffffffffffffffffffffffffffffffffff021916908373ffffffffffffffffffffffffffffffffffffffff16021790555090505080806126229061350d565b915050612528565b50600460008573ffffffffffffffffffffffffffffffffffffffff1673ffffffffffffffffffffffffffffffffffffffff1681526020019081526020016000206000848152602001908152602001600020600080820160006101000a81549073ffffffffffffffffffffffffffffffffffffffff021916905560018201600090556002820160009055600382016000905560048201600090556005820160006101000a81549060ff02191690556007820160006126e79190612788565b505050505050565b600083838360405160200161270693929190614238565b6040516020818303038152906040528051906020012090509392505050565b60008151905060006a636f6e736f6c652e6c6f679050602083016000808483855afa5050505050565b60405180606001604052806000815260200160008019168152602001600073ffffffffffffffffffffffffffffffffffffffff1681525090565b50805460008255906000526020600020908101906127a691906127a9565b50565b5b808211156127c25760008160009055506001016127aa565b5090565b600080fd5b600073ffffffffffffffffffffffffffffffffffffffff82169050919050565b60006127f6826127cb565b9050919050565b612806816127eb565b811461281157600080fd5b50565b600081359050612823816127fd565b92915050565b6000819050919050565b61283c81612829565b811461284757600080fd5b50565b60008135905061285981612833565b92915050565b60008060408385031215612876576128756127c6565b5b600061288485828601612814565b92505060206128958582860161284a565b9150509250929050565b600081519050919050565b600082825260208201905092915050565b6000819050602082019050919050565b6128d4816127eb565b82525050565b60006128e683836128cb565b60208301905092915050565b6000602082019050919050565b600061290a8261289f565b61291481856128aa565b935061291f836128bb565b8060005b8381101561295057815161293788826128da565b9750612942836128f2565b925050600181019050612923565b5085935050505092915050565b6000602082019050818103600083015261297781846128ff565b905092915050565b61298881612829565b82525050565b60006020820190506129a3600083018461297f565b92915050565b6000602082840312156129bf576129be6127c6565b5b60006129cd84828501612814565b91505092915050565b6000819050919050565b6129e9816129d6565b82525050565b600060ff82169050919050565b612a05816129ef565b82525050565b6000604082019050612a2060008301856129e0565b612a2d60208301846129fc565b9392505050565b60008115159050919050565b612a4981612a34565b82525050565b6000602082019050612a646000830184612a40565b92915050565b612a73816127eb565b82525050565b6000602082019050612a8e6000830184612a6a565b92915050565b6000612a9f826127cb565b9050919050565b612aaf81612a94565b82525050565b7f4e487b7100000000000000000000000000000000000000000000000000000000600052602160045260246000fd5b60068110612af557612af4612ab5565b5b50565b6000819050612b0682612ae4565b919050565b6000612b1682612af8565b9050919050565b612b2681612b0b565b82525050565b600060c082019050612b416000830189612aa6565b612b4e602083018861297f565b612b5b604083018761297f565b612b68606083018661297f565b612b75608083018561297f565b612b8260a0830184612b1d565b979650505050505050565b6000819050919050565b612ba081612b8d565b8114612bab57600080fd5b50565b600081359050612bbd81612b97565b92915050565b60008060008060808587031215612bdd57612bdc6127c6565b5b6000612beb87828801612814565b9450506020612bfc8782880161284a565b9350506040612c0d8782880161284a565b9250506060612c1e87828801612bae565b91505092959194509250565b60008060008060008060c08789031215612c4757612c466127c6565b5b6000612c5589828a01612814565b9650506020612c6689828a0161284a565b9550506040612c7789828a0161284a565b9450506060612c8889828a0161284a565b9350506080612c9989828a0161284a565b92505060a0612caa89828a0161284a565b9150509295509295509295565b600080600060608486031215612cd057612ccf6127c6565b5b6000612cde86828701612814565b9350506020612cef8682870161284a565b9250506040612d0086828701612814565b9150509250925092565b612d1381612829565b82525050565b612d2281612b8d565b82525050565b606082016000820151612d3e6000850182612d0a565b506020820151612d516020850182612d19565b506040820151612d6460408501826128cb565b50505050565b6000606082019050612d7f6000830184612d28565b92915050565b60008060008060808587031215612d9f57612d9e6127c6565b5b6000612dad87828801612814565b9450506020612dbe8782880161284a565b9350506040612dcf87828801612bae565b9250506060612de087828801612814565b91505092959194509250565b600081519050919050565b600082825260208201905092915050565b6000819050602082019050919050565b604082016000820151612e2e60008501826128cb565b506020820151612e4160208501826128cb565b50505050565b6000612e538383612e18565b60408301905092915050565b6000602082019050919050565b6000612e7782612dec565b612e818185612df7565b9350612e8c83612e08565b8060005b83811015612ebd578151612ea48882612e47565b9750612eaf83612e5f565b925050600181019050612e90565b5085935050505092915050565b60006020820190508181036000830152612ee48184612e6c565b905092915050565b600060208284031215612f0257612f016127c6565b5b6000612f108482850161284a565b91505092915050565b6000604082019050612f2e6000830185612a6a565b612f3b6020830184612a6a565b9392505050565b600081519050919050565b600082825260208201905092915050565b60005b83811015612f7c578082015181840152602081019050612f61565b60008484015250505050565b6000601f19601f8301169050919050565b6000612fa482612f42565b612fae8185612f4d565b9350612fbe818560208601612f5e565b612fc781612f88565b840191505092915050565b60006020820190508181036000830152612fec8184612f99565b905092915050565b7f6e6f206269647300000000000000000000000000000000000000000000000000600082015250565b600061302a600783612f4d565b915061303582612ff4565b602082019050919050565b600060208201905081810360008301526130598161301d565b9050919050565b600069ffffffffffffffffffff82169050919050565b61307f81613060565b811461308a57600080fd5b50565b60008151905061309c81613076565b92915050565b6130ab816129d6565b81146130b657600080fd5b50565b6000815190506130c8816130a2565b92915050565b6000815190506130dd81612833565b92915050565b600080600080600060a086880312156130ff576130fe6127c6565b5b600061310d8882890161308d565b955050602061311e888289016130b9565b945050604061312f888289016130ce565b9350506060613140888289016130ce565b92505060806131518882890161308d565b9150509295509295909350565b613167816129ef565b811461317257600080fd5b50565b6000815190506131848161315e565b92915050565b6000602082840312156131a05761319f6127c6565b5b60006131ae84828501613175565b91505092915050565b7f4e487b7100000000000000000000000000000000000000000000000000000000600052601160045260246000fd5b60008160011c9050919050565b6000808291508390505b600185111561323d57808604811115613219576132186131b7565b5b60018516156132285780820291505b8081029050613236856131e6565b94506131fd565b94509492505050565b6000826132565760019050613312565b816132645760009050613312565b816001811461327a5760028114613284576132b3565b6001915050613312565b60ff841115613296576132956131b7565b5b8360020a9150848211156132ad576132ac6131b7565b5b50613312565b5060208310610133831016604e8410600b84101617156132e85782820a9050838111156132e3576132e26131b7565b5b613312565b6132f584848460016131f3565b9250905081840481111561330c5761330b6131b7565b5b81810290505b9392505050565b600061332482612829565b915061332f836129ef565b925061335c7fffffffffffffffffffffffffffffffffffffffffffffffffffffffffffffffff8484613246565b905092915050565b600061336f82612829565b915061337a83612829565b925082820261338881612829565b9150828204841483151761339f5761339e6131b7565b5b5092915050565b7f4e487b7100000000000000000000000000000000000000000000000000000000600052601260045260246000fd5b60006133e082612829565b91506133eb83612829565b9250826133fb576133fa6133a6565b5b828204905092915050565b7f6e6f742061756374696f6e206f776e6572000000000000000000000000000000600082015250565b600061343c601183612f4d565b915061344782613406565b602082019050919050565b6000602082019050818103600083015261346b8161342f565b9050919050565b7f6e6f7420696e2072657665616c20706861736500000000000000000000000000600082015250565b60006134a8601383612f4d565b91506134b382613472565b602082019050919050565b600060208201905081810360008301526134d78161349b565b9050919050565b7f4e487b7100000000000000000000000000000000000000000000000000000000600052603260045260246000fd5b600061351882612829565b91507fffffffffffffffffffffffffffffffffffffffffffffffffffffffffffffffff820361354a576135496131b7565b5b600182019050919050565b600060608201905061356a6000830186612a6a565b6135776020830185612a6a565b613584604083018461297f565b949350505050565b60006080820190506135a16000830187612a6a565b6135ae602083018661297f565b6135bb6040830185612a6a565b6135c8606083018461297f565b95945050505050565b6135da81612a34565b81146135e557600080fd5b50565b6000815190506135f7816135d1565b92915050565b600060208284031215613613576136126127c6565b5b6000613621848285016135e8565b91505092915050565b6000819050919050565b600061364f61364a613645846127cb565b61362a565b6127cb565b9050919050565b600061366182613634565b9050919050565b600061367382613656565b9050919050565b61368381613668565b82525050565b600060a08201905061369e6000830188612a6a565b6136ab602083018761297f565b6136b86040830186612a6a565b6136c5606083018561367a565b6136d2608083018461297f565b9695505050505050565b7f7a65726f206269642076616c7565000000000000000000000000000000000000600082015250565b6000613712600e83612f4d565b915061371d826136dc565b602082019050919050565b6000602082019050818103600083015261374181613705565b9050919050565b7f6e6f2062696420636f6d6d69746d656e74000000000000000000000000000000600082015250565b600061377e601183612f4d565b915061378982613748565b602082019050919050565b600060208201905081810360008301526137ad81613771565b9050919050565b6000602082840312156137ca576137c96127c6565b5b60006137d8848285016130ce565b91505092915050565b7f696e7375666620746f6b656e2062616c00000000000000000000000000000000600082015250565b6000613817601083612f4d565b9150613822826137e1565b602082019050919050565b600060208201905081810360008301526138468161380a565b9050919050565b7f6c6f7720746f6b656e20616c6c6f77616e636500000000000000000000000000600082015250565b6000613883601383612f4d565b915061388e8261384d565b602082019050919050565b600060208201905081810360008301526138b281613876565b9050919050565b6000819050919050565b6138d46138cf82612829565b6138b9565b82525050565b6000819050919050565b6138f56138f082612b8d565b6138da565b82525050565b600061390782856138c3565b60208201915061391782846138e4565b6020820191508190509392505050565b7f696e76616c696420626964206861736800000000000000000000000000000000600082015250565b600061395d601083612f4d565b915061396882613927565b602082019050919050565b6000602082019050818103600083015261398c81613950565b9050919050565b61399c81612b8d565b82525050565b600060c0820190506139b76000830189612a6a565b6139c4602083018861297f565b6139d16040830187613993565b6139de6060830186612a6a565b6139eb6080830185613993565b6139f860a083018461297f565b979650505050505050565b7f5265656e7472616e637947756172643a207265656e7472616e742063616c6c00600082015250565b6000613a39601f83612f4d565b9150613a4482613a03565b602082019050919050565b60006020820190508181036000830152613a6881613a2c565b9050919050565b600081519050613a7e816127fd565b92915050565b600060208284031215613a9a57613a996127c6565b5b6000613aa884828501613a6f565b91505092915050565b7f6e6f74206f776e65720000000000000000000000000000000000000000000000600082015250565b6000613ae7600983612f4d565b9150613af282613ab1565b602082019050919050565b60006020820190508181036000830152613b1681613ada565b9050919050565b7f696e76616c69642061756374696f6e2073746172742074696d65000000000000600082015250565b6000613b53601a83612f4d565b9150613b5e82613b1d565b602082019050919050565b60006020820190508181036000830152613b8281613b46565b9050919050565b7f61756374696f6e2070726963652063616e6e6f74206265207a65726f00000000600082015250565b6000613bbf601c83612f4d565b9150613bca82613b89565b602082019050919050565b60006020820190508181036000830152613bee81613bb2565b9050919050565b6000613c0082612829565b9150613c0b83612829565b9250828201905080821115613c2357613c226131b7565b5b92915050565b7f696e76616c69642061756374696f6e20656e642074696d650000000000000000600082015250565b6000613c5f601883612f4d565b9150613c6a82613c29565b602082019050919050565b60006020820190508181036000830152613c8e81613c52565b9050919050565b7f696e76616c69642072657665616c206475726174696f6e2074696d6500000000600082015250565b6000613ccb601c83612f4d565b9150613cd682613c95565b602082019050919050565b60006020820190508181036000830152613cfa81613cbe565b9050919050565b7f61756374696f6e20616c72656164792065786973740000000000000000000000600082015250565b6000613d37601583612f4d565b9150613d4282613d01565b602082019050919050565b60006020820190508181036000830152613d6681613d2a565b9050919050565b600061010082019050613d83600083018b612a6a565b613d90602083018a61297f565b613d9d6040830189612a6a565b613daa606083018861297f565b613db7608083018761297f565b613dc460a083018661297f565b613dd160c083018561297f565b613dde60e083018461297f565b9998505050505050505050565b7f6e6f6e2d6578697374656e742061756374696f6e206974656d00000000000000600082015250565b6000613e21601983612f4d565b9150613e2c82613deb565b602082019050919050565b60006020820190508181036000830152613e5081613e14565b9050919050565b7f6465706c6f7965722063616e6e6f742062696400000000000000000000000000600082015250565b6000613e8d601383612f4d565b9150613e9882613e57565b602082019050919050565b60006020820190508181036000830152613ebc81613e80565b9050919050565b7f7a65726f2062696420636f6d6d69746d656e7400000000000000000000000000600082015250565b6000613ef9601383612f4d565b9150613f0482613ec3565b602082019050919050565b60006020820190508181036000830152613f2881613eec565b9050919050565b7f696e76616c69642062696420746f6b656e000000000000000000000000000000600082015250565b6000613f65601183612f4d565b9150613f7082613f2f565b602082019050919050565b60006020820190508181036000830152613f9481613f58565b9050919050565b7f61756374696f6e20686173206e6f742073746172746564000000000000000000600082015250565b6000613fd1601783612f4d565b9150613fdc82613f9b565b602082019050919050565b6000602082019050818103600083015261400081613fc4565b9050919050565b7f61756374696f6e2073656c6c65722063616e6e6f742062696400000000000000600082015250565b600061403d601983612f4d565b915061404882614007565b602082019050919050565b6000602082019050818103600083015261406c81614030565b9050919050565b7f61756374696f6e2068617320656e646564000000000000000000000000000000600082015250565b60006140a9601183612f4d565b91506140b482614073565b602082019050919050565b600060208201905081810360008301526140d88161409c565b9050919050565b7f696e697469616c697a656420626964436f6d6d69746d656e7400000000000000600082015250565b6000614115601983612f4d565b9150614120826140df565b602082019050919050565b6000602082019050818103600083015261414481614108565b9050919050565b60006080820190506141606000830187612a6a565b61416d602083018661297f565b61417a6040830185613993565b614187606083018461297f565b95945050505050565b600060408201905081810360008301526141aa8185612f99565b90506141b96020830184612a6a565b9392505050565b600060408201905081810360008301526141da8185612f99565b90506141e9602083018461297f565b9392505050565b60008160601b9050919050565b6000614208826141f0565b9050919050565b600061421a826141fd565b9050919050565b61423261422d826127eb565b61420f565b82525050565b60006142448286614221565b60148201915061425482856138e4565b6020820191506142648284614221565b60148201915081905094935050505056fe686967686573742062696420616d6f756e742066726f6d206461756374696f6e202573666f726d61747465642070726963652066726f6d206461756374696f6e5f5f202573a26469706673582212209056c7fc6a08fbcc4774081fa401bb500adb02f073d9279fd133657b33240f0b64736f6c63430008110033",
	"linkReferences": {},
	"deployedLinkReferences": {}
}