{
	"_format": "hh-sol-artifact-1",
	"contractName": "Dauction",
	"sourceName": "contracts/Dauction.sol",
	"abi": [
		{
			"inputs": [
				{
					"components": [
						{
							"internalType": "address",
							"name": "token",
							"type": "address"
						},
						{
							"internalType": "address",
							"name": "priceFeed",
							"type": "address"
						}
					],
					"internalType": "struct Dauction.BidTokens[]",
					"name": "bidTokensArray",
					"type": "tuple[]"
				},
				{
					"internalType": "address",
					"name": "_USDT",
					"type": "address"
				}
			],
			"stateMutability": "nonpayable",
			"type": "constructor"
		},
		{
			"anonymous": false,
			"inputs": [
				{
					"indexed": false,
					"internalType": "address",
					"name": "nft",
					"type": "address"
				},
				{
					"indexed": false,
					"internalType": "uint256",
					"name": "tokenId",
					"type": "uint256"
				},
				{
					"indexed": false,
					"internalType": "address",
					"name": "seller",
					"type": "address"
				},
				{
					"indexed": false,
					"internalType": "uint256",
					"name": "minBidPrice",
					"type": "uint256"
				},
				{
					"indexed": false,
					"internalType": "uint256",
					"name": "startTime",
					"type": "uint256"
				},
				{
					"indexed": false,
					"internalType": "uint256",
					"name": "endTime",
					"type": "uint256"
				},
				{
					"indexed": false,
					"internalType": "uint256",
					"name": "revealDuration",
					"type": "uint256"
				},
				{
					"indexed": false,
					"internalType": "uint256",
					"name": "auctionCreatedAt",
					"type": "uint256"
				}
			],
			"name": "AuctionCreated",
			"type": "event"
		},
		{
			"anonymous": false,
			"inputs": [
				{
					"indexed": false,
					"internalType": "address",
					"name": "nftAddress",
					"type": "address"
				},
				{
					"indexed": false,
					"internalType": "uint256",
					"name": "tokenId",
					"type": "uint256"
				},
				{
					"indexed": false,
					"internalType": "address",
					"name": "previousOwner",
					"type": "address"
				},
				{
					"indexed": false,
					"internalType": "address",
					"name": "newOwner",
					"type": "address"
				},
				{
					"indexed": false,
					"internalType": "uint256",
					"name": "tokenAmountPaid",
					"type": "uint256"
				}
			],
			"name": "AuctionSettled",
			"type": "event"
		},
		{
			"anonymous": false,
			"inputs": [
				{
					"indexed": false,
					"internalType": "address",
					"name": "nftAddress",
					"type": "address"
				},
				{
					"indexed": false,
					"internalType": "uint256",
					"name": "tokenId",
					"type": "uint256"
				},
				{
					"indexed": false,
					"internalType": "address",
					"name": "owner",
					"type": "address"
				},
				{
					"indexed": false,
					"internalType": "uint256",
					"name": "time",
					"type": "uint256"
				}
			],
			"name": "AuctionUnsettled",
			"type": "event"
		},
		{
			"anonymous": false,
			"inputs": [
				{
					"indexed": false,
					"internalType": "address",
					"name": "nftContractAddress",
					"type": "address"
				},
				{
					"indexed": false,
					"internalType": "uint256",
					"name": "tokenId",
					"type": "uint256"
				},
				{
					"indexed": false,
					"internalType": "bytes32",
					"name": "bidCommitment",
					"type": "bytes32"
				},
				{
					"indexed": false,
					"internalType": "uint256",
					"name": "biddedAt",
					"type": "uint256"
				}
			],
			"name": "BidCreated",
			"type": "event"
		},
		{
			"anonymous": false,
			"inputs": [
				{
					"indexed": false,
					"internalType": "address",
					"name": "tokenContract",
					"type": "address"
				},
				{
					"indexed": false,
					"internalType": "uint256",
					"name": "tokenId",
					"type": "uint256"
				},
				{
					"indexed": false,
					"internalType": "bytes32",
					"name": "bidHash",
					"type": "bytes32"
				},
				{
					"indexed": false,
					"internalType": "address",
					"name": "bidder",
					"type": "address"
				},
				{
					"indexed": false,
					"internalType": "bytes32",
					"name": "salt",
					"type": "bytes32"
				},
				{
					"indexed": false,
					"internalType": "uint256",
					"name": "bidValue",
					"type": "uint256"
				}
			],
			"name": "BidRevealed",
			"type": "event"
		},
		{
			"inputs": [],
			"name": "MIN_AUCTION_PERIOD",
			"outputs": [
				{
					"internalType": "uint256",
					"name": "",
					"type": "uint256"
				}
			],
			"stateMutability": "view",
			"type": "function"
		},
		{
			"inputs": [
				{
					"internalType": "address",
					"name": "",
					"type": "address"
				},
				{
					"internalType": "uint256",
					"name": "",
					"type": "uint256"
				}
			],
			"name": "auctions",
			"outputs": [
				{
					"internalType": "address payable",
					"name": "owner",
					"type": "address"
				},
				{
					"internalType": "uint256",
					"name": "startTime",
					"type": "uint256"
				},
				{
					"internalType": "uint256",
					"name": "minBidPrice",
					"type": "uint256"
				},
				{
					"internalType": "uint256",
					"name": "endTime",
					"type": "uint256"
				},
				{
					"internalType": "uint256",
					"name": "revealDuration",
					"type": "uint256"
				},
				{
					"internalType": "enum Dauction.AuctionStatus",
					"name": "auctionStatus",
					"type": "uint8"
				}
			],
			"stateMutability": "view",
			"type": "function"
		},
		{
			"inputs": [
				{
					"internalType": "address",
					"name": "",
					"type": "address"
				}
			],
			"name": "bidTokenToPriceFeed",
			"outputs": [
				{
					"internalType": "address",
					"name": "",
					"type": "address"
				}
			],
			"stateMutability": "view",
			"type": "function"
		},
		{
			"inputs": [
				{
					"internalType": "uint256",
					"name": "",
					"type": "uint256"
				}
			],
			"name": "bidTokens",
			"outputs": [
				{
					"internalType": "address",
					"name": "token",
					"type": "address"
				},
				{
					"internalType": "address",
					"name": "priceFeed",
					"type": "address"
				}
			],
			"stateMutability": "view",
			"type": "function"
		},
		{
			"inputs": [
				{
					"internalType": "address",
					"name": "_priceFeed",
					"type": "address"
				},
				{
					"internalType": "uint256",
					"name": "bidAmount",
					"type": "uint256"
				}
			],
			"name": "calculateBasePrice",
			"outputs": [
				{
					"internalType": "uint256",
					"name": "",
					"type": "uint256"
				}
			],
			"stateMutability": "view",
			"type": "function"
		},
		{
			"inputs": [
				{
					"internalType": "address",
					"name": "_bidToken",
					"type": "address"
				}
			],
			"name": "checkBidTokenUSDTEquivalence",
			"outputs": [
				{
					"internalType": "bool",
					"name": "",
					"type": "bool"
				}
			],
			"stateMutability": "view",
			"type": "function"
		},
		{
			"inputs": [
				{
					"internalType": "address",
					"name": "_nftAddress",
					"type": "address"
				},
				{
					"internalType": "uint256",
					"name": "_tokenId",
					"type": "uint256"
				},
				{
					"internalType": "uint256",
					"name": "_minBidPrice",
					"type": "uint256"
				},
				{
					"internalType": "uint256",
					"name": "_startTime",
					"type": "uint256"
				},
				{
					"internalType": "uint256",
					"name": "_endTime",
					"type": "uint256"
				},
				{
					"internalType": "uint256",
					"name": "_revealDuration",
					"type": "uint256"
				}
			],
			"name": "createAuction",
			"outputs": [],
			"stateMutability": "nonpayable",
			"type": "function"
		},
		{
			"inputs": [
				{
					"internalType": "address",
					"name": "nftContractAddress",
					"type": "address"
				},
				{
					"internalType": "uint256",
					"name": "tokenId",
					"type": "uint256"
				},
				{
					"internalType": "bytes32",
					"name": "bidCommitment",
					"type": "bytes32"
				},
				{
					"internalType": "address",
					"name": "bidToken",
					"type": "address"
				}
			],
			"name": "createBid",
			"outputs": [],
			"stateMutability": "nonpayable",
			"type": "function"
		},
		{
			"inputs": [
				{
					"internalType": "address",
					"name": "nftAddress",
					"type": "address"
				},
				{
					"internalType": "uint256",
					"name": "tokenId",
					"type": "uint256"
				}
			],
			"name": "getAuctionStatus",
			"outputs": [
				{
					"internalType": "string",
					"name": "_auctionStatus",
					"type": "string"
				}
			],
			"stateMutability": "view",
			"type": "function"
		},
		{
			"inputs": [
				{
					"internalType": "address",
					"name": "nftAddress",
					"type": "address"
				},
				{
					"internalType": "uint256",
					"name": "tokenId",
					"type": "uint256"
				},
				{
					"internalType": "address",
					"name": "bidder",
					"type": "address"
				}
			],
			"name": "getBid",
			"outputs": [
				{
					"components": [
						{
							"internalType": "uint256",
							"name": "amountBidded",
							"type": "uint256"
						},
						{
							"internalType": "bytes32",
							"name": "bidCommitHash",
							"type": "bytes32"
						},
						{
							"internalType": "address",
							"name": "bidToken",
							"type": "address"
						}
					],
					"internalType": "struct Dauction.Bid",
					"name": "",
					"type": "tuple"
				}
			],
			"stateMutability": "view",
			"type": "function"
		},
		{
			"inputs": [],
			"name": "getBidTokens",
			"outputs": [
				{
					"components": [
						{
							"internalType": "address",
							"name": "token",
							"type": "address"
						},
						{
							"internalType": "address",
							"name": "priceFeed",
							"type": "address"
						}
					],
					"internalType": "struct Dauction.BidTokens[]",
					"name": "",
					"type": "tuple[]"
				}
			],
			"stateMutability": "view",
			"type": "function"
		},
		{
			"inputs": [
				{
					"internalType": "address",
					"name": "nftAddress",
					"type": "address"
				},
				{
					"internalType": "uint256",
					"name": "tokenId",
					"type": "uint256"
				}
			],
			"name": "getBidders",
			"outputs": [
				{
					"internalType": "address[]",
					"name": "",
					"type": "address[]"
				}
			],
			"stateMutability": "view",
			"type": "function"
		},
		{
			"inputs": [
				{
					"internalType": "address",
					"name": "_priceFeed",
					"type": "address"
				}
			],
			"name": "getLatestPrice",
			"outputs": [
				{
					"internalType": "int256",
					"name": "",
					"type": "int256"
				},
				{
					"internalType": "uint8",
					"name": "",
					"type": "uint8"
				}
			],
			"stateMutability": "view",
			"type": "function"
		},
		{
			"inputs": [
				{
					"internalType": "address",
					"name": "nftAddress",
					"type": "address"
				},
				{
					"internalType": "uint256",
					"name": "tokenId",
					"type": "uint256"
				}
			],
			"name": "getMinBidPrice",
			"outputs": [
				{
					"internalType": "uint256",
					"name": "",
					"type": "uint256"
				}
			],
			"stateMutability": "view",
			"type": "function"
		},
		{
			"inputs": [
				{
					"internalType": "address",
					"name": "nftAddress",
					"type": "address"
				},
				{
					"internalType": "uint256",
					"name": "tokenId",
					"type": "uint256"
				},
				{
					"internalType": "uint256",
					"name": "bidValue",
					"type": "uint256"
				},
				{
					"internalType": "bytes32",
					"name": "salt",
					"type": "bytes32"
				}
			],
			"name": "revealBid",
			"outputs": [],
			"stateMutability": "nonpayable",
			"type": "function"
		},
		{
			"inputs": [
				{
					"internalType": "address",
					"name": "nftAddress",
					"type": "address"
				},
				{
					"internalType": "uint256",
					"name": "tokenId",
					"type": "uint256"
				}
			],
			"name": "settleAuction",
			"outputs": [],
			"stateMutability": "nonpayable",
			"type": "function"
		},
		{
			"inputs": [],
			"name": "totalAuctions",
			"outputs": [
				{
					"internalType": "uint256",
					"name": "",
					"type": "uint256"
				}
			],
			"stateMutability": "view",
			"type": "function"
		}
	],
	"bytecode": "0x60a06040523480156200001157600080fd5b50604051620044cd380380620044cd8339818101604052810190620000379190620003ec565b600160008190555060005b8251811015620001225782818151811062000062576200006162000452565b5b6020026020010151602001516001600085848151811062000088576200008762000452565b5b60200260200101516000015173ffffffffffffffffffffffffffffffffffffffff1673ffffffffffffffffffffffffffffffffffffffff16815260200190815260200160002060006101000a81548173ffffffffffffffffffffffffffffffffffffffff021916908373ffffffffffffffffffffffffffffffffffffffff16021790555080806200011990620004ba565b91505062000042565b508073ffffffffffffffffffffffffffffffffffffffff1660808173ffffffffffffffffffffffffffffffffffffffff168152505033600560006101000a81548173ffffffffffffffffffffffffffffffffffffffff021916908373ffffffffffffffffffffffffffffffffffffffff160217905550505062000507565b6000604051905090565b600080fd5b600080fd5b600080fd5b6000601f19601f8301169050919050565b7f4e487b7100000000000000000000000000000000000000000000000000000000600052604160045260246000fd5b6200020482620001b9565b810181811067ffffffffffffffff82111715620002265762000225620001ca565b5b80604052505050565b60006200023b620001a0565b9050620002498282620001f9565b919050565b600067ffffffffffffffff8211156200026c576200026b620001ca565b5b602082029050602081019050919050565b600080fd5b600080fd5b600073ffffffffffffffffffffffffffffffffffffffff82169050919050565b6000620002b48262000287565b9050919050565b620002c681620002a7565b8114620002d257600080fd5b50565b600081519050620002e681620002bb565b92915050565b60006040828403121562000305576200030462000282565b5b6200031160406200022f565b905060006200032384828501620002d5565b60008301525060206200033984828501620002d5565b60208301525092915050565b60006200035c62000356846200024e565b6200022f565b905080838252602082019050604084028301858111156200038257620003816200027d565b5b835b81811015620003af57806200039a8882620002ec565b84526020840193505060408101905062000384565b5050509392505050565b600082601f830112620003d157620003d0620001b4565b5b8151620003e384826020860162000345565b91505092915050565b60008060408385031215620004065762000405620001aa565b5b600083015167ffffffffffffffff811115620004275762000426620001af565b5b6200043585828601620003b9565b92505060206200044885828601620002d5565b9150509250929050565b7f4e487b7100000000000000000000000000000000000000000000000000000000600052603260045260246000fd5b7f4e487b7100000000000000000000000000000000000000000000000000000000600052601160045260246000fd5b6000819050919050565b6000620004c782620004b0565b91507fffffffffffffffffffffffffffffffffffffffffffffffffffffffffffffffff8203620004fc57620004fb62000481565b5b600182019050919050565b608051613faa62000523600039600061064f0152613faa6000f3fe608060405234801561001057600080fd5b506004361061010b5760003560e01c80635138b08c116100a2578063b34171b511610071578063b34171b5146102f6578063c2e0e7e014610326578063d59feb6a14610342578063e6f7fbd414610360578063f8a206fa146103915761010b565b80635138b08c146102845780637887df85146102a0578063791bb4ef146102bc57806398984de6146102d85761010b565b8063194d07ca116100de578063194d07ca146101bf5780631e8a0b32146101ef57806333d31bf51461021f57806344f91c1e1461024f5761010b565b80630d587c1e14610110578063102784981461014057806316002f4a1461017057806316345f181461018e575b600080fd5b61012a600480360381019061012591906125be565b6103c1565b60405161013791906126bc565b60405180910390f35b61015a600480360381019061015591906125be565b6104ed565b60405161016791906126ed565b60405180910390f35b61017861054b565b60405161018591906126ed565b60405180910390f35b6101a860048036038101906101a39190612708565b610551565b6040516101b692919061276a565b60405180910390f35b6101d960048036038101906101d49190612708565b61064b565b6040516101e691906127ae565b60405180910390f35b610209600480360381019061020491906125be565b6106b1565b60405161021691906126ed565b60405180910390f35b61023960048036038101906102349190612708565b6106f0565b60405161024691906127d8565b60405180910390f35b610269600480360381019061026491906125be565b610723565b60405161027b9695949392919061288b565b60405180910390f35b61029e600480360381019061029991906125be565b610799565b005b6102ba60048036038101906102b59190612922565b610e3c565b005b6102d660048036038101906102d19190612989565b611259565b005b6102e06116b8565b6040516102ed91906126ed565b60405180910390f35b610310600480360381019061030b9190612a16565b6116be565b60405161031d9190612ac9565b60405180910390f35b610340600480360381019061033b9190612ae4565b611824565b005b61034a611def565b6040516103579190612c29565b60405180910390f35b61037a60048036038101906103759190612c4b565b611efa565b604051610388929190612c78565b60405180910390f35b6103ab60048036038101906103a691906125be565b611f6e565b6040516103b89190612d31565b60405180910390f35b60606000600460008573ffffffffffffffffffffffffffffffffffffffff1673ffffffffffffffffffffffffffffffffffffffff168152602001908152602001600020600084815260200190815260200160002060070180548060200260200160405190810160405280929190818152602001828054801561049857602002820191906000526020600020905b8160009054906101000a900473ffffffffffffffffffffffffffffffffffffffff1673ffffffffffffffffffffffffffffffffffffffff168152602001906001019080831161044e575b5050505050905060008151036104e3576040517f08c379a00000000000000000000000000000000000000000000000000000000081526004016104da90612d9f565b60405180910390fd5b8091505092915050565b6000600460008473ffffffffffffffffffffffffffffffffffffffff1673ffffffffffffffffffffffffffffffffffffffff168152602001908152602001600020600083815260200190815260200160002060020154905092915050565b60035481565b60008060008373ffffffffffffffffffffffffffffffffffffffff1663feaf968c6040518163ffffffff1660e01b815260040160a060405180830381865afa1580156105a1573d6000803e3d6000fd5b505050506040513d601f19601f820116820180604052508101906105c59190612e42565b50505091505060008473ffffffffffffffffffffffffffffffffffffffff1663313ce5676040518163ffffffff1660e01b8152600401602060405180830381865afa158015610618573d6000803e3d6000fd5b505050506040513d601f19601f8201168201806040525081019061063c9190612ee9565b90508181935093505050915091565b60007f000000000000000000000000000000000000000000000000000000000000000073ffffffffffffffffffffffffffffffffffffffff168273ffffffffffffffffffffffffffffffffffffffff16146106a75760006106aa565b60015b9050919050565b60008060006106bf85610551565b9150915080600a6106d09190613078565b82856106dc91906130c3565b6106e69190613134565b9250505092915050565b60016020528060005260406000206000915054906101000a900473ffffffffffffffffffffffffffffffffffffffff1681565b6004602052816000526040600020602052806000526040600020600091509150508060000160009054906101000a900473ffffffffffffffffffffffffffffffffffffffff16908060010154908060020154908060030154908060040154908060050160009054906101000a900460ff16905086565b6000600460008473ffffffffffffffffffffffffffffffffffffffff1673ffffffffffffffffffffffffffffffffffffffff168152602001908152602001600020600083815260200190815260200160002090508060000160009054906101000a900473ffffffffffffffffffffffffffffffffffffffff1673ffffffffffffffffffffffffffffffffffffffff163373ffffffffffffffffffffffffffffffffffffffff161461087f576040517f08c379a0000000000000000000000000000000000000000000000000000000008152600401610876906131b1565b60405180910390fd5b806004015442116108c5576040517f08c379a00000000000000000000000000000000000000000000000000000000081526004016108bc9061321d565b60405180910390fd5b60008060008060005b8560070180549050811015610aa3578560070181815481106108f3576108f261323d565b5b9060005260206000200160009054906101000a900473ffffffffffffffffffffffffffffffffffffffff16945060008660060160008773ffffffffffffffffffffffffffffffffffffffff1673ffffffffffffffffffffffffffffffffffffffff16815260200190815260200160002060405180606001604052908160008201548152602001600182015481526020016002820160009054906101000a900473ffffffffffffffffffffffffffffffffffffffff1673ffffffffffffffffffffffffffffffffffffffff1673ffffffffffffffffffffffffffffffffffffffff1681525050905060008160000151036109ec5750610a90565b806000015194506000816040015190506000610a078261064b565b610a7957610a74600160008473ffffffffffffffffffffffffffffffffffffffff1673ffffffffffffffffffffffffffffffffffffffff16815260200190815260200160002060009054906101000a900473ffffffffffffffffffffffffffffffffffffffff16886106b1565b610a7b565b865b905085811115610a8c578095508794505b5050505b8080610a9b9061326c565b9150506108ce565b50600073ffffffffffffffffffffffffffffffffffffffff168173ffffffffffffffffffffffffffffffffffffffff161480610ae25750846002015482105b15610c1257338560000160006101000a81548173ffffffffffffffffffffffffffffffffffffffff021916908373ffffffffffffffffffffffffffffffffffffffff16021790555060058560050160006101000a81548160ff02191690836005811115610b5257610b51612814565b5b02179055508673ffffffffffffffffffffffffffffffffffffffff166342842e0e3033896040518463ffffffff1660e01b8152600401610b94939291906132b4565b600060405180830381600087803b158015610bae57600080fd5b505af1158015610bc2573d6000803e3d6000fd5b50505050610bd0878761219f565b7f4c52329b429b6bc14602f8d8e34d003593c51b818a57a24fbc132479501432ad87873342604051610c0594939291906132eb565b60405180910390a1610e29565b60008560060160008373ffffffffffffffffffffffffffffffffffffffff1673ffffffffffffffffffffffffffffffffffffffff16815260200190815260200160002060405180606001604052908160008201548152602001600182015481526020016002820160009054906101000a900473ffffffffffffffffffffffffffffffffffffffff1673ffffffffffffffffffffffffffffffffffffffff1673ffffffffffffffffffffffffffffffffffffffff16815250509050806040015173ffffffffffffffffffffffffffffffffffffffff166323b872dd833384600001516040518463ffffffff1660e01b8152600401610d11939291906132b4565b6020604051808303816000875af1158015610d30573d6000803e3d6000fd5b505050506040513d601f19601f82011682018060405250810190610d54919061335c565b508773ffffffffffffffffffffffffffffffffffffffff166342842e0e30848a6040518463ffffffff1660e01b8152600401610d92939291906132b4565b600060405180830381600087803b158015610dac57600080fd5b505af1158015610dc0573d6000803e3d6000fd5b505050507fd89ac72b811465c6564ec26b5b26028c4682af9011a5f67bd34a50a095d0b13b8888338960000160009054906101000a900473ffffffffffffffffffffffffffffffffffffffff1687604051610e1f9594939291906133e8565b60405180910390a1505b610e33878761219f565b50505050505050565b60008203610e7f576040517f08c379a0000000000000000000000000000000000000000000000000000000008152600401610e7690613487565b60405180910390fd5b6000600460008673ffffffffffffffffffffffffffffffffffffffff1673ffffffffffffffffffffffffffffffffffffffff1681526020019081526020016000206000858152602001908152602001600020905080600301544210158015610eeb575080600401544211155b610f2a576040517f08c379a0000000000000000000000000000000000000000000000000000000008152600401610f219061321d565b60405180910390fd5b60008160060160003373ffffffffffffffffffffffffffffffffffffffff1673ffffffffffffffffffffffffffffffffffffffff16815260200190815260200160002090506000801b816001015403610fb8576040517f08c379a0000000000000000000000000000000000000000000000000000000008152600401610faf906134f3565b60405180910390fd5b60008160020160009054906101000a900473ffffffffffffffffffffffffffffffffffffffff169050848173ffffffffffffffffffffffffffffffffffffffff166370a08231336040518263ffffffff1660e01b815260040161101b91906127d8565b602060405180830381865afa158015611038573d6000803e3d6000fd5b505050506040513d601f19601f8201168201806040525081019061105c9190613513565b101561109d576040517f08c379a00000000000000000000000000000000000000000000000000000000081526004016110949061358c565b60405180910390fd5b848173ffffffffffffffffffffffffffffffffffffffff1663dd62ed3e33306040518363ffffffff1660e01b81526004016110d9929190612c78565b602060405180830381865afa1580156110f6573d6000803e3d6000fd5b505050506040513d601f19601f8201168201806040525081019061111a9190613513565b101561115b576040517f08c379a0000000000000000000000000000000000000000000000000000000008152600401611152906135f8565b60405180910390fd5b600061119033878760405160200161117492919061365a565b6040516020818303038152906040528051906020012084612477565b9050826001015481146111d8576040517f08c379a00000000000000000000000000000000000000000000000000000000081526004016111cf906136d2565b60405180910390fd5b85836000018190555060038460050160006101000a81548160ff0219169083600581111561120957611208612814565b5b02179055507fac1cdcb34c2f43796c50b2d0b00e98133621d7ea7593195241557dac6a5f184e88888333898b60405161124796959493929190613701565b60405180910390a15050505050505050565b60026000540361129e576040517f08c379a0000000000000000000000000000000000000000000000000000000008152600401611295906137ae565b60405180910390fd5b600260008190555060008690508073ffffffffffffffffffffffffffffffffffffffff16636352211e876040518263ffffffff1660e01b81526004016112e491906126ed565b602060405180830381865afa158015611301573d6000803e3d6000fd5b505050506040513d601f19601f8201168201806040525081019061132591906137e3565b73ffffffffffffffffffffffffffffffffffffffff163373ffffffffffffffffffffffffffffffffffffffff1614611392576040517f08c379a00000000000000000000000000000000000000000000000000000000081526004016113899061385c565b60405180910390fd5b428410156113d5576040517f08c379a00000000000000000000000000000000000000000000000000000000081526004016113cc906138c8565b60405180910390fd5b60008511611418576040517f08c379a000000000000000000000000000000000000000000000000000000000815260040161140f90613934565b60405180910390fd5b610e10846114269190613954565b831015611468576040517f08c379a000000000000000000000000000000000000000000000000000000000815260040161145f906139d4565b60405180910390fd5b8282116114aa576040517f08c379a00000000000000000000000000000000000000000000000000000000081526004016114a190613a40565b60405180910390fd5b6000600460008973ffffffffffffffffffffffffffffffffffffffff1673ffffffffffffffffffffffffffffffffffffffff168152602001908152602001600020600088815260200190815260200160002090506000816003015414611545576040517f08c379a000000000000000000000000000000000000000000000000000000000815260040161153c90613aac565b60405180910390fd5b338160000160006101000a81548173ffffffffffffffffffffffffffffffffffffffff021916908373ffffffffffffffffffffffffffffffffffffffff16021790555085816002018190555060018160050160006101000a81548160ff021916908360058111156115b9576115b8612814565b5b021790555084816001018190555083816003018190555082816004018190555060016003546115e89190613954565b6003819055508173ffffffffffffffffffffffffffffffffffffffff166323b872dd33308a6040518463ffffffff1660e01b815260040161162b939291906132b4565b600060405180830381600087803b15801561164557600080fd5b505af1158015611659573d6000803e3d6000fd5b505050507fdf179f1d286c93c679334be11420131492ab86e4d75b9598ed0ff17508273b4e88883389856001015489894260405161169e989796959493929190613acc565b60405180910390a150506001600081905550505050505050565b610e1081565b6116c66124ad565b6000600460008673ffffffffffffffffffffffffffffffffffffffff1673ffffffffffffffffffffffffffffffffffffffff168152602001908152602001600020600085815260200190815260200160002090506000816007018054905003611764576040517f08c379a000000000000000000000000000000000000000000000000000000000815260040161175b90612d9f565b60405180910390fd5b8060060160008473ffffffffffffffffffffffffffffffffffffffff1673ffffffffffffffffffffffffffffffffffffffff16815260200190815260200160002060405180606001604052908160008201548152602001600182015481526020016002820160009054906101000a900473ffffffffffffffffffffffffffffffffffffffff1673ffffffffffffffffffffffffffffffffffffffff1673ffffffffffffffffffffffffffffffffffffffff16815250509150509392505050565b600260005403611869576040517f08c379a0000000000000000000000000000000000000000000000000000000008152600401611860906137ae565b60405180910390fd5b60026000819055506000600460008673ffffffffffffffffffffffffffffffffffffffff1673ffffffffffffffffffffffffffffffffffffffff16815260200190815260200160002060008581526020019081526020016000209050600073ffffffffffffffffffffffffffffffffffffffff168160000160009054906101000a900473ffffffffffffffffffffffffffffffffffffffff1673ffffffffffffffffffffffffffffffffffffffff1603611958576040517f08c379a000000000000000000000000000000000000000000000000000000000815260040161194f90613b96565b60405180910390fd5b600560009054906101000a900473ffffffffffffffffffffffffffffffffffffffff1673ffffffffffffffffffffffffffffffffffffffff163373ffffffffffffffffffffffffffffffffffffffff16036119e8576040517f08c379a00000000000000000000000000000000000000000000000000000000081526004016119df90613c02565b60405180910390fd5b6000801b8303611a2d576040517f08c379a0000000000000000000000000000000000000000000000000000000008152600401611a2490613c6e565b60405180910390fd5b600073ffffffffffffffffffffffffffffffffffffffff16600160008473ffffffffffffffffffffffffffffffffffffffff1673ffffffffffffffffffffffffffffffffffffffff16815260200190815260200160002060009054906101000a900473ffffffffffffffffffffffffffffffffffffffff1673ffffffffffffffffffffffffffffffffffffffff16141580611acd5750611acc8261064b565b5b611b0c576040517f08c379a0000000000000000000000000000000000000000000000000000000008152600401611b0390613cda565b60405180910390fd5b8060010154421015611b53576040517f08c379a0000000000000000000000000000000000000000000000000000000008152600401611b4a90613d46565b60405180910390fd5b8060000160009054906101000a900473ffffffffffffffffffffffffffffffffffffffff1673ffffffffffffffffffffffffffffffffffffffff163373ffffffffffffffffffffffffffffffffffffffff1603611be5576040517f08c379a0000000000000000000000000000000000000000000000000000000008152600401611bdc90613db2565b60405180910390fd5b4281600301541015611c2c576040517f08c379a0000000000000000000000000000000000000000000000000000000008152600401611c2390613e1e565b60405180910390fd5b60008160060160003373ffffffffffffffffffffffffffffffffffffffff1673ffffffffffffffffffffffffffffffffffffffff16815260200190815260200160002090506000801b816001015414611cba576040517f08c379a0000000000000000000000000000000000000000000000000000000008152600401611cb190613e8a565b60405180910390fd5b611cc5338585612477565b816001018190555060028260050160006101000a81548160ff02191690836005811115611cf557611cf4612814565b5b0217905550828160020160006101000a81548173ffffffffffffffffffffffffffffffffffffffff021916908373ffffffffffffffffffffffffffffffffffffffff16021790555081600701339080600181540180825580915050600190039060005260206000200160009091909190916101000a81548173ffffffffffffffffffffffffffffffffffffffff021916908373ffffffffffffffffffffffffffffffffffffffff1602179055507fe86a7bf4f8980619e10345099db4bf2d07da85bf499e37fd7ecb0b5df95c62d886868642604051611dd79493929190613eaa565b60405180910390a15050600160008190555050505050565b60606002805480602002602001604051908101604052809291908181526020016000905b82821015611ef157838290600052602060002090600202016040518060400160405290816000820160009054906101000a900473ffffffffffffffffffffffffffffffffffffffff1673ffffffffffffffffffffffffffffffffffffffff1673ffffffffffffffffffffffffffffffffffffffff1681526020016001820160009054906101000a900473ffffffffffffffffffffffffffffffffffffffff1673ffffffffffffffffffffffffffffffffffffffff1673ffffffffffffffffffffffffffffffffffffffff168152505081526020019060010190611e13565b50505050905090565b60028181548110611f0a57600080fd5b90600052602060002090600202016000915090508060000160009054906101000a900473ffffffffffffffffffffffffffffffffffffffff16908060010160009054906101000a900473ffffffffffffffffffffffffffffffffffffffff16905082565b60606000600460008573ffffffffffffffffffffffffffffffffffffffff1673ffffffffffffffffffffffffffffffffffffffff168152602001908152602001600020600084815260200190815260200160002060050160009054906101000a900460ff166005811115611fe557611fe4612814565b5b905060008160ff160361202f576040518060400160405280600a81526020017f556e61737369676e6564000000000000000000000000000000000000000000008152509150612198565b60018160ff1603612077576040518060400160405280600981526020017f496e6974696174656400000000000000000000000000000000000000000000008152509150612197565b60028160ff16036120bf576040518060400160405280600681526020017f42696464656400000000000000000000000000000000000000000000000000008152509150612196565b60038160ff1603612107576040518060400160405280600881526020017f52657665616c65640000000000000000000000000000000000000000000000008152509150612195565b60048160ff160361214f576040518060400160405280600881526020017f45786563757465640000000000000000000000000000000000000000000000008152509150612194565b60058160ff1603612193576040518060400160405280600a81526020017f556e65786563757465640000000000000000000000000000000000000000000081525091505b5b5b5b5b5b5092915050565b6000600460008473ffffffffffffffffffffffffffffffffffffffff1673ffffffffffffffffffffffffffffffffffffffff1681526020019081526020016000206000838152602001908152602001600020905060008160060160008073ffffffffffffffffffffffffffffffffffffffff1673ffffffffffffffffffffffffffffffffffffffff16815260200190815260200160002060405180606001604052908160008201548152602001600182015481526020016002820160009054906101000a900473ffffffffffffffffffffffffffffffffffffffff1673ffffffffffffffffffffffffffffffffffffffff1673ffffffffffffffffffffffffffffffffffffffff1681525050905060005b82600701805490508110156123b257818360060160008560070184815481106122dc576122db61323d565b5b9060005260206000200160009054906101000a900473ffffffffffffffffffffffffffffffffffffffff1673ffffffffffffffffffffffffffffffffffffffff1673ffffffffffffffffffffffffffffffffffffffff168152602001908152602001600020600082015181600001556020820151816001015560408201518160020160006101000a81548173ffffffffffffffffffffffffffffffffffffffff021916908373ffffffffffffffffffffffffffffffffffffffff16021790555090505080806123aa9061326c565b9150506122b0565b50600460008573ffffffffffffffffffffffffffffffffffffffff1673ffffffffffffffffffffffffffffffffffffffff1681526020019081526020016000206000848152602001908152602001600020600080820160006101000a81549073ffffffffffffffffffffffffffffffffffffffff021916905560018201600090556002820160009055600382016000905560048201600090556005820160006101000a81549060ff021916905560078201600061246f91906124e7565b505050505050565b600083838360405160200161248e93929190613f37565b6040516020818303038152906040528051906020012090509392505050565b60405180606001604052806000815260200160008019168152602001600073ffffffffffffffffffffffffffffffffffffffff1681525090565b50805460008255906000526020600020908101906125059190612508565b50565b5b80821115612521576000816000905550600101612509565b5090565b600080fd5b600073ffffffffffffffffffffffffffffffffffffffff82169050919050565b60006125558261252a565b9050919050565b6125658161254a565b811461257057600080fd5b50565b6000813590506125828161255c565b92915050565b6000819050919050565b61259b81612588565b81146125a657600080fd5b50565b6000813590506125b881612592565b92915050565b600080604083850312156125d5576125d4612525565b5b60006125e385828601612573565b92505060206125f4858286016125a9565b9150509250929050565b600081519050919050565b600082825260208201905092915050565b6000819050602082019050919050565b6126338161254a565b82525050565b6000612645838361262a565b60208301905092915050565b6000602082019050919050565b6000612669826125fe565b6126738185612609565b935061267e8361261a565b8060005b838110156126af5781516126968882612639565b97506126a183612651565b925050600181019050612682565b5085935050505092915050565b600060208201905081810360008301526126d6818461265e565b905092915050565b6126e781612588565b82525050565b600060208201905061270260008301846126de565b92915050565b60006020828403121561271e5761271d612525565b5b600061272c84828501612573565b91505092915050565b6000819050919050565b61274881612735565b82525050565b600060ff82169050919050565b6127648161274e565b82525050565b600060408201905061277f600083018561273f565b61278c602083018461275b565b9392505050565b60008115159050919050565b6127a881612793565b82525050565b60006020820190506127c3600083018461279f565b92915050565b6127d28161254a565b82525050565b60006020820190506127ed60008301846127c9565b92915050565b60006127fe8261252a565b9050919050565b61280e816127f3565b82525050565b7f4e487b7100000000000000000000000000000000000000000000000000000000600052602160045260246000fd5b6006811061285457612853612814565b5b50565b600081905061286582612843565b919050565b600061287582612857565b9050919050565b6128858161286a565b82525050565b600060c0820190506128a06000830189612805565b6128ad60208301886126de565b6128ba60408301876126de565b6128c760608301866126de565b6128d460808301856126de565b6128e160a083018461287c565b979650505050505050565b6000819050919050565b6128ff816128ec565b811461290a57600080fd5b50565b60008135905061291c816128f6565b92915050565b6000806000806080858703121561293c5761293b612525565b5b600061294a87828801612573565b945050602061295b878288016125a9565b935050604061296c878288016125a9565b925050606061297d8782880161290d565b91505092959194509250565b60008060008060008060c087890312156129a6576129a5612525565b5b60006129b489828a01612573565b96505060206129c589828a016125a9565b95505060406129d689828a016125a9565b94505060606129e789828a016125a9565b93505060806129f889828a016125a9565b92505060a0612a0989828a016125a9565b9150509295509295509295565b600080600060608486031215612a2f57612a2e612525565b5b6000612a3d86828701612573565b9350506020612a4e868287016125a9565b9250506040612a5f86828701612573565b9150509250925092565b612a7281612588565b82525050565b612a81816128ec565b82525050565b606082016000820151612a9d6000850182612a69565b506020820151612ab06020850182612a78565b506040820151612ac3604085018261262a565b50505050565b6000606082019050612ade6000830184612a87565b92915050565b60008060008060808587031215612afe57612afd612525565b5b6000612b0c87828801612573565b9450506020612b1d878288016125a9565b9350506040612b2e8782880161290d565b9250506060612b3f87828801612573565b91505092959194509250565b600081519050919050565b600082825260208201905092915050565b6000819050602082019050919050565b604082016000820151612b8d600085018261262a565b506020820151612ba0602085018261262a565b50505050565b6000612bb28383612b77565b60408301905092915050565b6000602082019050919050565b6000612bd682612b4b565b612be08185612b56565b9350612beb83612b67565b8060005b83811015612c1c578151612c038882612ba6565b9750612c0e83612bbe565b925050600181019050612bef565b5085935050505092915050565b60006020820190508181036000830152612c438184612bcb565b905092915050565b600060208284031215612c6157612c60612525565b5b6000612c6f848285016125a9565b91505092915050565b6000604082019050612c8d60008301856127c9565b612c9a60208301846127c9565b9392505050565b600081519050919050565b600082825260208201905092915050565b60005b83811015612cdb578082015181840152602081019050612cc0565b60008484015250505050565b6000601f19601f8301169050919050565b6000612d0382612ca1565b612d0d8185612cac565b9350612d1d818560208601612cbd565b612d2681612ce7565b840191505092915050565b60006020820190508181036000830152612d4b8184612cf8565b905092915050565b7f6e6f206269647300000000000000000000000000000000000000000000000000600082015250565b6000612d89600783612cac565b9150612d9482612d53565b602082019050919050565b60006020820190508181036000830152612db881612d7c565b9050919050565b600069ffffffffffffffffffff82169050919050565b612dde81612dbf565b8114612de957600080fd5b50565b600081519050612dfb81612dd5565b92915050565b612e0a81612735565b8114612e1557600080fd5b50565b600081519050612e2781612e01565b92915050565b600081519050612e3c81612592565b92915050565b600080600080600060a08688031215612e5e57612e5d612525565b5b6000612e6c88828901612dec565b9550506020612e7d88828901612e18565b9450506040612e8e88828901612e2d565b9350506060612e9f88828901612e2d565b9250506080612eb088828901612dec565b9150509295509295909350565b612ec68161274e565b8114612ed157600080fd5b50565b600081519050612ee381612ebd565b92915050565b600060208284031215612eff57612efe612525565b5b6000612f0d84828501612ed4565b91505092915050565b7f4e487b7100000000000000000000000000000000000000000000000000000000600052601160045260246000fd5b60008160011c9050919050565b6000808291508390505b6001851115612f9c57808604811115612f7857612f77612f16565b5b6001851615612f875780820291505b8081029050612f9585612f45565b9450612f5c565b94509492505050565b600082612fb55760019050613071565b81612fc35760009050613071565b8160018114612fd95760028114612fe357613012565b6001915050613071565b60ff841115612ff557612ff4612f16565b5b8360020a91508482111561300c5761300b612f16565b5b50613071565b5060208310610133831016604e8410600b84101617156130475782820a90508381111561304257613041612f16565b5b613071565b6130548484846001612f52565b9250905081840481111561306b5761306a612f16565b5b81810290505b9392505050565b600061308382612588565b915061308e8361274e565b92506130bb7fffffffffffffffffffffffffffffffffffffffffffffffffffffffffffffffff8484612fa5565b905092915050565b60006130ce82612588565b91506130d983612588565b92508282026130e781612588565b915082820484148315176130fe576130fd612f16565b5b5092915050565b7f4e487b7100000000000000000000000000000000000000000000000000000000600052601260045260246000fd5b600061313f82612588565b915061314a83612588565b92508261315a57613159613105565b5b828204905092915050565b7f6e6f742061756374696f6e206f776e6572000000000000000000000000000000600082015250565b600061319b601183612cac565b91506131a682613165565b602082019050919050565b600060208201905081810360008301526131ca8161318e565b9050919050565b7f6e6f7420696e2072657665616c20706861736500000000000000000000000000600082015250565b6000613207601383612cac565b9150613212826131d1565b602082019050919050565b60006020820190508181036000830152613236816131fa565b9050919050565b7f4e487b7100000000000000000000000000000000000000000000000000000000600052603260045260246000fd5b600061327782612588565b91507fffffffffffffffffffffffffffffffffffffffffffffffffffffffffffffffff82036132a9576132a8612f16565b5b600182019050919050565b60006060820190506132c960008301866127c9565b6132d660208301856127c9565b6132e360408301846126de565b949350505050565b600060808201905061330060008301876127c9565b61330d60208301866126de565b61331a60408301856127c9565b61332760608301846126de565b95945050505050565b61333981612793565b811461334457600080fd5b50565b60008151905061335681613330565b92915050565b60006020828403121561337257613371612525565b5b600061338084828501613347565b91505092915050565b6000819050919050565b60006133ae6133a96133a48461252a565b613389565b61252a565b9050919050565b60006133c082613393565b9050919050565b60006133d2826133b5565b9050919050565b6133e2816133c7565b82525050565b600060a0820190506133fd60008301886127c9565b61340a60208301876126de565b61341760408301866127c9565b61342460608301856133d9565b61343160808301846126de565b9695505050505050565b7f7a65726f206269642076616c7565000000000000000000000000000000000000600082015250565b6000613471600e83612cac565b915061347c8261343b565b602082019050919050565b600060208201905081810360008301526134a081613464565b9050919050565b7f6e6f2062696420636f6d6d69746d656e74000000000000000000000000000000600082015250565b60006134dd601183612cac565b91506134e8826134a7565b602082019050919050565b6000602082019050818103600083015261350c816134d0565b9050919050565b60006020828403121561352957613528612525565b5b600061353784828501612e2d565b91505092915050565b7f696e7375666620746f6b656e2062616c00000000000000000000000000000000600082015250565b6000613576601083612cac565b915061358182613540565b602082019050919050565b600060208201905081810360008301526135a581613569565b9050919050565b7f6c6f7720746f6b656e20616c6c6f77616e636500000000000000000000000000600082015250565b60006135e2601383612cac565b91506135ed826135ac565b602082019050919050565b60006020820190508181036000830152613611816135d5565b9050919050565b6000819050919050565b61363361362e82612588565b613618565b82525050565b6000819050919050565b61365461364f826128ec565b613639565b82525050565b60006136668285613622565b6020820191506136768284613643565b6020820191508190509392505050565b7f696e76616c696420626964206861736800000000000000000000000000000000600082015250565b60006136bc601083612cac565b91506136c782613686565b602082019050919050565b600060208201905081810360008301526136eb816136af565b9050919050565b6136fb816128ec565b82525050565b600060c08201905061371660008301896127c9565b61372360208301886126de565b61373060408301876136f2565b61373d60608301866127c9565b61374a60808301856136f2565b61375760a08301846126de565b979650505050505050565b7f5265656e7472616e637947756172643a207265656e7472616e742063616c6c00600082015250565b6000613798601f83612cac565b91506137a382613762565b602082019050919050565b600060208201905081810360008301526137c78161378b565b9050919050565b6000815190506137dd8161255c565b92915050565b6000602082840312156137f9576137f8612525565b5b6000613807848285016137ce565b91505092915050565b7f6e6f74206f776e65720000000000000000000000000000000000000000000000600082015250565b6000613846600983612cac565b915061385182613810565b602082019050919050565b6000602082019050818103600083015261387581613839565b9050919050565b7f696e76616c69642061756374696f6e2073746172742074696d65000000000000600082015250565b60006138b2601a83612cac565b91506138bd8261387c565b602082019050919050565b600060208201905081810360008301526138e1816138a5565b9050919050565b7f61756374696f6e2070726963652063616e6e6f74206265207a65726f00000000600082015250565b600061391e601c83612cac565b9150613929826138e8565b602082019050919050565b6000602082019050818103600083015261394d81613911565b9050919050565b600061395f82612588565b915061396a83612588565b925082820190508082111561398257613981612f16565b5b92915050565b7f696e76616c69642061756374696f6e20656e642074696d650000000000000000600082015250565b60006139be601883612cac565b91506139c982613988565b602082019050919050565b600060208201905081810360008301526139ed816139b1565b9050919050565b7f696e76616c69642072657665616c206475726174696f6e2074696d6500000000600082015250565b6000613a2a601c83612cac565b9150613a35826139f4565b602082019050919050565b60006020820190508181036000830152613a5981613a1d565b9050919050565b7f61756374696f6e20616c72656164792065786973740000000000000000000000600082015250565b6000613a96601583612cac565b9150613aa182613a60565b602082019050919050565b60006020820190508181036000830152613ac581613a89565b9050919050565b600061010082019050613ae2600083018b6127c9565b613aef602083018a6126de565b613afc60408301896127c9565b613b0960608301886126de565b613b1660808301876126de565b613b2360a08301866126de565b613b3060c08301856126de565b613b3d60e08301846126de565b9998505050505050505050565b7f6e6f6e2d6578697374656e742061756374696f6e206974656d00000000000000600082015250565b6000613b80601983612cac565b9150613b8b82613b4a565b602082019050919050565b60006020820190508181036000830152613baf81613b73565b9050919050565b7f6465706c6f7965722063616e6e6f742062696400000000000000000000000000600082015250565b6000613bec601383612cac565b9150613bf782613bb6565b602082019050919050565b60006020820190508181036000830152613c1b81613bdf565b9050919050565b7f7a65726f2062696420636f6d6d69746d656e7400000000000000000000000000600082015250565b6000613c58601383612cac565b9150613c6382613c22565b602082019050919050565b60006020820190508181036000830152613c8781613c4b565b9050919050565b7f696e76616c69642062696420746f6b656e000000000000000000000000000000600082015250565b6000613cc4601183612cac565b9150613ccf82613c8e565b602082019050919050565b60006020820190508181036000830152613cf381613cb7565b9050919050565b7f61756374696f6e20686173206e6f742073746172746564000000000000000000600082015250565b6000613d30601783612cac565b9150613d3b82613cfa565b602082019050919050565b60006020820190508181036000830152613d5f81613d23565b9050919050565b7f61756374696f6e2073656c6c65722063616e6e6f742062696400000000000000600082015250565b6000613d9c601983612cac565b9150613da782613d66565b602082019050919050565b60006020820190508181036000830152613dcb81613d8f565b9050919050565b7f61756374696f6e2068617320656e646564000000000000000000000000000000600082015250565b6000613e08601183612cac565b9150613e1382613dd2565b602082019050919050565b60006020820190508181036000830152613e3781613dfb565b9050919050565b7f696e697469616c697a656420626964436f6d6d69746d656e7400000000000000600082015250565b6000613e74601983612cac565b9150613e7f82613e3e565b602082019050919050565b60006020820190508181036000830152613ea381613e67565b9050919050565b6000608082019050613ebf60008301876127c9565b613ecc60208301866126de565b613ed960408301856136f2565b613ee660608301846126de565b95945050505050565b60008160601b9050919050565b6000613f0782613eef565b9050919050565b6000613f1982613efc565b9050919050565b613f31613f2c8261254a565b613f0e565b82525050565b6000613f438286613f20565b601482019150613f538285613643565b602082019150613f638284613f20565b60148201915081905094935050505056fea26469706673582212206d0426b5150674e917ba961412d770b27b7b1d9d2ae2cb53a35d05de1fe4fb2064736f6c63430008110033",
	"linkReferences": {},
	"deployedLinkReferences": {}
}