{
	"_format": "hh-sol-artifact-1",
	"contractName": "Dauction",
	"sourceName": "contracts/Dauction.sol",
	"abi": [
		{
			"inputs": [
				{
					"internalType": "address",
					"name": "_usdtContractAddress",
					"type": "address"
				}
			],
			"stateMutability": "nonpayable",
			"type": "constructor"
		},
		{
			"anonymous": false,
			"inputs": [
				{
					"indexed": false,
					"internalType": "uint256",
					"name": "tokenId",
					"type": "uint256"
				},
				{
					"indexed": false,
					"internalType": "address",
					"name": "seller",
					"type": "address"
				},
				{
					"indexed": false,
					"internalType": "uint256",
					"name": "minBidPrice",
					"type": "uint256"
				},
				{
					"indexed": false,
					"internalType": "uint256",
					"name": "startTime",
					"type": "uint256"
				},
				{
					"indexed": false,
					"internalType": "uint256",
					"name": "endTime",
					"type": "uint256"
				}
			],
			"name": "AuctionCreated",
			"type": "event"
		},
		{
			"anonymous": false,
			"inputs": [],
			"name": "BidCreated",
			"type": "event"
		},
		{
			"anonymous": false,
			"inputs": [
				{
					"indexed": false,
					"internalType": "address",
					"name": "tokenContract",
					"type": "address"
				},
				{
					"indexed": false,
					"internalType": "uint256",
					"name": "tokenId",
					"type": "uint256"
				},
				{
					"indexed": false,
					"internalType": "bytes32",
					"name": "bidHash",
					"type": "bytes32"
				},
				{
					"indexed": false,
					"internalType": "address",
					"name": "bidder",
					"type": "address"
				},
				{
					"indexed": false,
					"internalType": "bytes32",
					"name": "salt",
					"type": "bytes32"
				},
				{
					"indexed": false,
					"internalType": "uint256",
					"name": "bidValue",
					"type": "uint256"
				}
			],
			"name": "BidRevealed",
			"type": "event"
		},
		{
			"inputs": [],
			"name": "MIN_AUCTION_PERIOD",
			"outputs": [
				{
					"internalType": "uint256",
					"name": "",
					"type": "uint256"
				}
			],
			"stateMutability": "view",
			"type": "function"
		},
		{
			"inputs": [],
			"name": "activeAuctions",
			"outputs": [
				{
					"internalType": "uint256",
					"name": "",
					"type": "uint256"
				}
			],
			"stateMutability": "view",
			"type": "function"
		},
		{
			"inputs": [
				{
					"internalType": "address",
					"name": "",
					"type": "address"
				},
				{
					"internalType": "uint256",
					"name": "",
					"type": "uint256"
				}
			],
			"name": "auctions",
			"outputs": [
				{
					"internalType": "address payable",
					"name": "seller",
					"type": "address"
				},
				{
					"internalType": "uint256",
					"name": "startTime",
					"type": "uint256"
				},
				{
					"internalType": "uint256",
					"name": "minBidPrice",
					"type": "uint256"
				},
				{
					"internalType": "uint256",
					"name": "endTime",
					"type": "uint256"
				},
				{
					"internalType": "address",
					"name": "highestBidAddress",
					"type": "address"
				},
				{
					"internalType": "uint256",
					"name": "highestBidAmount",
					"type": "uint256"
				},
				{
					"internalType": "enum Dauction.AuctionStatus",
					"name": "auctionStatus",
					"type": "uint8"
				}
			],
			"stateMutability": "view",
			"type": "function"
		},
		{
			"inputs": [
				{
					"internalType": "bytes32",
					"name": "",
					"type": "bytes32"
				}
			],
			"name": "bytesToBid",
			"outputs": [
				{
					"internalType": "address",
					"name": "bidder",
					"type": "address"
				},
				{
					"internalType": "uint256",
					"name": "bidId",
					"type": "uint256"
				},
				{
					"internalType": "uint256",
					"name": "amountBidded",
					"type": "uint256"
				},
				{
					"internalType": "bytes32",
					"name": "bidCommitHash",
					"type": "bytes32"
				},
				{
					"internalType": "uint256",
					"name": "biddedAt",
					"type": "uint256"
				},
				{
					"internalType": "enum Dauction.BidStatus",
					"name": "bidStatus",
					"type": "uint8"
				},
				{
					"internalType": "uint256",
					"name": "bidCount",
					"type": "uint256"
				}
			],
			"stateMutability": "view",
			"type": "function"
		},
		{
			"inputs": [
				{
					"internalType": "address",
					"name": "_nftAddress",
					"type": "address"
				},
				{
					"internalType": "uint256",
					"name": "_tokenId",
					"type": "uint256"
				},
				{
					"internalType": "uint256",
					"name": "_minBidPrice",
					"type": "uint256"
				},
				{
					"internalType": "uint256",
					"name": "_startTime",
					"type": "uint256"
				},
				{
					"internalType": "uint256",
					"name": "_endTime",
					"type": "uint256"
				}
			],
			"name": "createAuction",
			"outputs": [],
			"stateMutability": "nonpayable",
			"type": "function"
		},
		{
			"inputs": [
				{
					"internalType": "address",
					"name": "nftContractAddress",
					"type": "address"
				},
				{
					"internalType": "uint256",
					"name": "tokenId",
					"type": "uint256"
				},
				{
					"internalType": "bytes32",
					"name": "bidCommitment",
					"type": "bytes32"
				}
			],
			"name": "createBid",
			"outputs": [],
			"stateMutability": "nonpayable",
			"type": "function"
		},
		{
			"inputs": [
				{
					"internalType": "address",
					"name": "nftAddress",
					"type": "address"
				},
				{
					"internalType": "uint256",
					"name": "tokenId",
					"type": "uint256"
				}
			],
			"name": "getAuctionStatus",
			"outputs": [
				{
					"internalType": "string",
					"name": "_auctionStatus",
					"type": "string"
				}
			],
			"stateMutability": "view",
			"type": "function"
		},
		{
			"inputs": [
				{
					"internalType": "address",
					"name": "nftAddress",
					"type": "address"
				},
				{
					"internalType": "uint256",
					"name": "tokenId",
					"type": "uint256"
				},
				{
					"internalType": "address",
					"name": "bidder",
					"type": "address"
				},
				{
					"internalType": "uint256",
					"name": "_bidId",
					"type": "uint256"
				}
			],
			"name": "getBidHash",
			"outputs": [
				{
					"internalType": "bytes32",
					"name": "",
					"type": "bytes32"
				}
			],
			"stateMutability": "view",
			"type": "function"
		},
		{
			"inputs": [
				{
					"internalType": "address",
					"name": "nftAddress",
					"type": "address"
				},
				{
					"internalType": "uint256",
					"name": "tokenId",
					"type": "uint256"
				},
				{
					"internalType": "address",
					"name": "_bidder",
					"type": "address"
				},
				{
					"internalType": "uint256",
					"name": "bidId",
					"type": "uint256"
				}
			],
			"name": "getBidStatus",
			"outputs": [
				{
					"internalType": "uint8",
					"name": "",
					"type": "uint8"
				}
			],
			"stateMutability": "view",
			"type": "function"
		},
		{
			"inputs": [
				{
					"internalType": "address",
					"name": "nftAddress",
					"type": "address"
				},
				{
					"internalType": "uint256",
					"name": "tokenId",
					"type": "uint256"
				}
			],
			"name": "getBidders",
			"outputs": [
				{
					"internalType": "address[]",
					"name": "",
					"type": "address[]"
				}
			],
			"stateMutability": "view",
			"type": "function"
		},
		{
			"inputs": [
				{
					"internalType": "address",
					"name": "nftAddress",
					"type": "address"
				},
				{
					"internalType": "uint256",
					"name": "tokenId",
					"type": "uint256"
				}
			],
			"name": "getMinBidPrice",
			"outputs": [
				{
					"internalType": "uint256",
					"name": "",
					"type": "uint256"
				}
			],
			"stateMutability": "view",
			"type": "function"
		},
		{
			"inputs": [
				{
					"internalType": "address",
					"name": "tokenContract",
					"type": "address"
				},
				{
					"internalType": "uint256",
					"name": "tokenId",
					"type": "uint256"
				},
				{
					"internalType": "uint256",
					"name": "bidValue",
					"type": "uint256"
				},
				{
					"internalType": "bytes32",
					"name": "salt",
					"type": "bytes32"
				},
				{
					"internalType": "uint256",
					"name": "bidId",
					"type": "uint256"
				}
			],
			"name": "revealBid",
			"outputs": [],
			"stateMutability": "nonpayable",
			"type": "function"
		},
		{
			"inputs": [],
			"name": "totalExecutedAuctions",
			"outputs": [
				{
					"internalType": "uint256",
					"name": "",
					"type": "uint256"
				}
			],
			"stateMutability": "view",
			"type": "function"
		}
	],
	"bytecode": "0x60806040526000600860006101000a81548160ff021916908360ff1602179055503480156200002d57600080fd5b50604051620029c1380380620029c183398181016040528101906200005391906200010d565b600160008190555080600260006101000a81548173ffffffffffffffffffffffffffffffffffffffff021916908373ffffffffffffffffffffffffffffffffffffffff160217905550506200013f565b600080fd5b600073ffffffffffffffffffffffffffffffffffffffff82169050919050565b6000620000d582620000a8565b9050919050565b620000e781620000c8565b8114620000f357600080fd5b50565b6000815190506200010781620000dc565b92915050565b600060208284031215620001265762000125620000a3565b5b60006200013684828501620000f6565b91505092915050565b612872806200014f6000396000f3fe608060405234801561001057600080fd5b50600436106100cf5760003560e01c8063528de96e1161008c57806398fc0a5e1161006657806398fc0a5e146102445780639978f52a14610274578063ca59c5c914610290578063f8a206fa146102ae576100cf565b8063528de96e146101da578063961c9ae41461020a57806398984de614610226576100cf565b80630185dff1146100d45780630d587c1e146100f05780631027849814610120578063403894121461015057806344f91c1e146101865780635090d0c6146101bc575b600080fd5b6100ee60048036038101906100e991906118a6565b6102de565b005b61010a60048036038101906101059190611921565b6106fa565b6040516101179190611a1f565b60405180910390f35b61013a60048036038101906101359190611921565b610826565b6040516101479190611a50565b60405180910390f35b61016a60048036038101906101659190611a6b565b610884565b60405161017d9796959493929190611b2d565b60405180910390f35b6101a0600480360381019061019b9190611921565b6108f3565b6040516101b39796959493929190611c05565b60405180910390f35b6101c461098f565b6040516101d19190611a50565b60405180910390f35b6101f460048036038101906101ef9190611c74565b610995565b6040516102019190611cdb565b60405180910390f35b610224600480360381019061021f9190611cf6565b610a46565b005b61022e610e5a565b60405161023b9190611a50565b60405180910390f35b61025e60048036038101906102599190611c74565b610e60565b60405161026b9190611d8d565b60405180910390f35b61028e60048036038101906102899190611da8565b610f30565b005b6102986115a0565b6040516102a59190611a50565b60405180910390f35b6102c860048036038101906102c39190611921565b6115a6565b6040516102d59190611e8b565b60405180910390f35b6000600a60008773ffffffffffffffffffffffffffffffffffffffff1673ffffffffffffffffffffffffffffffffffffffff168152602001908152602001600020600086815260200190815260200160002090508060030154421015610379576040517f08c379a000000000000000000000000000000000000000000000000000000000815260040161037090611ef9565b60405180910390fd5b600a60008773ffffffffffffffffffffffffffffffffffffffff1673ffffffffffffffffffffffffffffffffffffffff168152602001908152602001600020600086815260200190815260200160002060070160003373ffffffffffffffffffffffffffffffffffffffff1673ffffffffffffffffffffffffffffffffffffffff168152602001908152602001600020600083815260200190815260200160002060000160009054906101000a900473ffffffffffffffffffffffffffffffffffffffff1673ffffffffffffffffffffffffffffffffffffffff163373ffffffffffffffffffffffffffffffffffffffff16146104ab576040517f08c379a00000000000000000000000000000000000000000000000000000000081526004016104a290611f65565b60405180910390fd5b60008160070160003373ffffffffffffffffffffffffffffffffffffffff1673ffffffffffffffffffffffffffffffffffffffff1681526020019081526020016000206000878152602001908152602001600020905060008585604051602001610516929190611fc7565b604051602081830303815290604052805190602001209050600061053a338361178e565b9050600a60008a73ffffffffffffffffffffffffffffffffffffffff1673ffffffffffffffffffffffffffffffffffffffff168152602001908152602001600020600089815260200190815260200160002060070160003373ffffffffffffffffffffffffffffffffffffffff1673ffffffffffffffffffffffffffffffffffffffff1681526020019081526020016000206000868152602001908152602001600020600301548114610622576040517f08c379a00000000000000000000000000000000000000000000000000000000081526004016106199061203f565b60405180910390fd5b600084600501549050808811156106ee57878560050181905550338560040160006101000a81548173ffffffffffffffffffffffffffffffffffffffff021916908373ffffffffffffffffffffffffffffffffffffffff16021790555060028460050160006101000a81548160ff021916908360028111156106a7576106a6611ab6565b5b02179055507fac1cdcb34c2f43796c50b2d0b00e98133621d7ea7593195241557dac6a5f184e8a8a85338b8d6040516106e59695949392919061205f565b60405180910390a15b50505050505050505050565b60606000600a60008573ffffffffffffffffffffffffffffffffffffffff1673ffffffffffffffffffffffffffffffffffffffff16815260200190815260200160002060008481526020019081526020016000206009018054806020026020016040519081016040528092919081815260200182805480156107d157602002820191906000526020600020905b8160009054906101000a900473ffffffffffffffffffffffffffffffffffffffff1673ffffffffffffffffffffffffffffffffffffffff1681526020019060010190808311610787575b50505050509050600081511161081c576040517f08c379a00000000000000000000000000000000000000000000000000000000081526004016108139061210c565b60405180910390fd5b8091505092915050565b6000600a60008473ffffffffffffffffffffffffffffffffffffffff1673ffffffffffffffffffffffffffffffffffffffff168152602001908152602001600020600083815260200190815260200160002060020154905092915050565b60096020528060005260406000206000915090508060000160009054906101000a900473ffffffffffffffffffffffffffffffffffffffff16908060010154908060020154908060030154908060040154908060050160009054906101000a900460ff16908060060154905087565b600a602052816000526040600020602052806000526040600020600091509150508060000160009054906101000a900473ffffffffffffffffffffffffffffffffffffffff16908060010154908060020154908060030154908060040160009054906101000a900473ffffffffffffffffffffffffffffffffffffffff16908060050154908060060160009054906101000a900460ff16905087565b60035481565b6000600a60008673ffffffffffffffffffffffffffffffffffffffff1673ffffffffffffffffffffffffffffffffffffffff168152602001908152602001600020600085815260200190815260200160002060070160008473ffffffffffffffffffffffffffffffffffffffff1673ffffffffffffffffffffffffffffffffffffffff1681526020019081526020016000206000838152602001908152602001600020600301549050949350505050565b600260005403610a8b576040517f08c379a0000000000000000000000000000000000000000000000000000000008152600401610a8290612178565b60405180910390fd5b600260008190555060008590508573ffffffffffffffffffffffffffffffffffffffff16636352211e866040518263ffffffff1660e01b8152600401610ad19190611a50565b602060405180830381865afa158015610aee573d6000803e3d6000fd5b505050506040513d601f19601f82011682018060405250810190610b1291906121ad565b73ffffffffffffffffffffffffffffffffffffffff163373ffffffffffffffffffffffffffffffffffffffff1614610b7f576040517f08c379a0000000000000000000000000000000000000000000000000000000008152600401610b7690612226565b60405180910390fd5b42831015610bc2576040517f08c379a0000000000000000000000000000000000000000000000000000000008152600401610bb990612292565b60405180910390fd5b60008411610c05576040517f08c379a0000000000000000000000000000000000000000000000000000000008152600401610bfc906122fe565b60405180910390fd5b610e1083610c13919061234d565b821015610c55576040517f08c379a0000000000000000000000000000000000000000000000000000000008152600401610c4c906123cd565b60405180910390fd5b6000600a60008873ffffffffffffffffffffffffffffffffffffffff1673ffffffffffffffffffffffffffffffffffffffff168152602001908152602001600020600087815260200190815260200160002090506000816003015414610cf0576040517f08c379a0000000000000000000000000000000000000000000000000000000008152600401610ce790612439565b60405180910390fd5b338160000160006101000a81548173ffffffffffffffffffffffffffffffffffffffff021916908373ffffffffffffffffffffffffffffffffffffffff16021790555084816002018190555060018160060160006101000a81548160ff02191690836004811115610d6457610d63611ab6565b5b0217905550838160010181905550828160030181905550610d9160016003546117c190919063ffffffff16565b6003819055508173ffffffffffffffffffffffffffffffffffffffff166323b872dd3330896040518463ffffffff1660e01b8152600401610dd493929190612459565b600060405180830381600087803b158015610dee57600080fd5b505af1158015610e02573d6000803e3d6000fd5b505050507f05f9bf100dd0ca9f37f08e0526690286d357ed7d6c5a4ac29730440b6e2dfd62863387846001015487604051610e41959493929190612490565b60405180910390a1505060016000819055505050505050565b610e1081565b6000600a60008673ffffffffffffffffffffffffffffffffffffffff1673ffffffffffffffffffffffffffffffffffffffff168152602001908152602001600020600085815260200190815260200160002060070160008473ffffffffffffffffffffffffffffffffffffffff1673ffffffffffffffffffffffffffffffffffffffff168152602001908152602001600020600083815260200190815260200160002060050160009054906101000a900460ff166002811115610f2657610f25611ab6565b5b9050949350505050565b600260005403610f75576040517f08c379a0000000000000000000000000000000000000000000000000000000008152600401610f6c90612178565b60405180910390fd5b6002600081905550600073ffffffffffffffffffffffffffffffffffffffff16600a60008573ffffffffffffffffffffffffffffffffffffffff1673ffffffffffffffffffffffffffffffffffffffff168152602001908152602001600020600084815260200190815260200160002060000160009054906101000a900473ffffffffffffffffffffffffffffffffffffffff1673ffffffffffffffffffffffffffffffffffffffff160361105f576040517f08c379a00000000000000000000000000000000000000000000000000000000081526004016110569061252f565b60405180910390fd5b6000801b81036110a4576040517f08c379a000000000000000000000000000000000000000000000000000000000815260040161109b9061259b565b60405180910390fd5b6014600260009054906101000a900473ffffffffffffffffffffffffffffffffffffffff1673ffffffffffffffffffffffffffffffffffffffff166370a08231336040518263ffffffff1660e01b815260040161110191906125bb565b602060405180830381865afa15801561111e573d6000803e3d6000fd5b505050506040513d601f19601f8201168201806040525081019061114291906125eb565b1015611183576040517f08c379a000000000000000000000000000000000000000000000000000000000815260040161117a90612664565b60405180910390fd5b6000600a60008573ffffffffffffffffffffffffffffffffffffffff1673ffffffffffffffffffffffffffffffffffffffff168152602001908152602001600020600084815260200190815260200160002090508060000160009054906101000a900473ffffffffffffffffffffffffffffffffffffffff1673ffffffffffffffffffffffffffffffffffffffff163373ffffffffffffffffffffffffffffffffffffffff1603611269576040517f08c379a0000000000000000000000000000000000000000000000000000000008152600401611260906126d0565b60405180910390fd5b42816003015410156112b0576040517f08c379a00000000000000000000000000000000000000000000000000000000081526004016112a79061273c565b60405180910390fd5b60008160070160003373ffffffffffffffffffffffffffffffffffffffff1673ffffffffffffffffffffffffffffffffffffffff168152602001908152602001600020600085815260200190815260200160002090506000600281111561131a57611319611ab6565b5b8160050160009054906101000a900460ff16600281111561133e5761133d611ab6565b5b1461137e576040517f08c379a0000000000000000000000000000000000000000000000000000000008152600401611375906127a8565b60405180910390fd5b611388338461178e565b8160030181905550338160000160006101000a81548173ffffffffffffffffffffffffffffffffffffffff021916908373ffffffffffffffffffffffffffffffffffffffff1602179055506000816001015490506113f06001826117c190919063ffffffff16565b826001018190555060018260050160006101000a81548160ff021916908360028111156114205761141f611ab6565b5b0217905550826008018290806001815401808255809150506001900390600052602060002090600702016000909190919091506000820160009054906101000a900473ffffffffffffffffffffffffffffffffffffffff168160000160006101000a81548173ffffffffffffffffffffffffffffffffffffffff021916908373ffffffffffffffffffffffffffffffffffffffff160217905550600182015481600101556002820154816002015560038201548160030155600482015481600401556005820160009054906101000a900460ff168160050160006101000a81548160ff0219169083600281111561151a57611519611ab6565b5b021790555060068201548160060155505082600901339080600181540180825580915050600190039060005260206000200160009091909190916101000a81548173ffffffffffffffffffffffffffffffffffffffff021916908373ffffffffffffffffffffffffffffffffffffffff1602179055505050506001600081905550505050565b60045481565b60606000600a60008573ffffffffffffffffffffffffffffffffffffffff1673ffffffffffffffffffffffffffffffffffffffff168152602001908152602001600020600084815260200190815260200160002060060160009054906101000a900460ff16600481111561161d5761161c611ab6565b5b905060008160ff1603611667576040518060400160405280600a81526020017f556e61737369676e6564000000000000000000000000000000000000000000008152509150611787565b60018160ff16036116af576040518060400160405280600981526020017f496e6974696174656400000000000000000000000000000000000000000000008152509150611786565b60028160ff16036116f7576040518060400160405280600681526020017f42696464656400000000000000000000000000000000000000000000000000008152509150611785565b60038160ff160361173f576040518060400160405280600881526020017f45786563757465640000000000000000000000000000000000000000000000008152509150611784565b60048160ff1603611783576040518060400160405280600a81526020017f556e65786563757465640000000000000000000000000000000000000000000081525091505b5b5b5b5b5092915050565b600082826040516020016117a3929190612810565b60405160208183030381529060405280519060200120905092915050565b600081836117cf919061234d565b905092915050565b600080fd5b600073ffffffffffffffffffffffffffffffffffffffff82169050919050565b6000611807826117dc565b9050919050565b611817816117fc565b811461182257600080fd5b50565b6000813590506118348161180e565b92915050565b6000819050919050565b61184d8161183a565b811461185857600080fd5b50565b60008135905061186a81611844565b92915050565b6000819050919050565b61188381611870565b811461188e57600080fd5b50565b6000813590506118a08161187a565b92915050565b600080600080600060a086880312156118c2576118c16117d7565b5b60006118d088828901611825565b95505060206118e18882890161185b565b94505060406118f28882890161185b565b935050606061190388828901611891565b92505060806119148882890161185b565b9150509295509295909350565b60008060408385031215611938576119376117d7565b5b600061194685828601611825565b92505060206119578582860161185b565b9150509250929050565b600081519050919050565b600082825260208201905092915050565b6000819050602082019050919050565b611996816117fc565b82525050565b60006119a8838361198d565b60208301905092915050565b6000602082019050919050565b60006119cc82611961565b6119d6818561196c565b93506119e18361197d565b8060005b83811015611a125781516119f9888261199c565b9750611a04836119b4565b9250506001810190506119e5565b5085935050505092915050565b60006020820190508181036000830152611a3981846119c1565b905092915050565b611a4a8161183a565b82525050565b6000602082019050611a656000830184611a41565b92915050565b600060208284031215611a8157611a806117d7565b5b6000611a8f84828501611891565b91505092915050565b611aa1816117fc565b82525050565b611ab081611870565b82525050565b7f4e487b7100000000000000000000000000000000000000000000000000000000600052602160045260246000fd5b60038110611af657611af5611ab6565b5b50565b6000819050611b0782611ae5565b919050565b6000611b1782611af9565b9050919050565b611b2781611b0c565b82525050565b600060e082019050611b42600083018a611a98565b611b4f6020830189611a41565b611b5c6040830188611a41565b611b696060830187611aa7565b611b766080830186611a41565b611b8360a0830185611b1e565b611b9060c0830184611a41565b98975050505050505050565b6000611ba7826117dc565b9050919050565b611bb781611b9c565b82525050565b60058110611bce57611bcd611ab6565b5b50565b6000819050611bdf82611bbd565b919050565b6000611bef82611bd1565b9050919050565b611bff81611be4565b82525050565b600060e082019050611c1a600083018a611bae565b611c276020830189611a41565b611c346040830188611a41565b611c416060830187611a41565b611c4e6080830186611a98565b611c5b60a0830185611a41565b611c6860c0830184611bf6565b98975050505050505050565b60008060008060808587031215611c8e57611c8d6117d7565b5b6000611c9c87828801611825565b9450506020611cad8782880161185b565b9350506040611cbe87828801611825565b9250506060611ccf8782880161185b565b91505092959194509250565b6000602082019050611cf06000830184611aa7565b92915050565b600080600080600060a08688031215611d1257611d116117d7565b5b6000611d2088828901611825565b9550506020611d318882890161185b565b9450506040611d428882890161185b565b9350506060611d538882890161185b565b9250506080611d648882890161185b565b9150509295509295909350565b600060ff82169050919050565b611d8781611d71565b82525050565b6000602082019050611da26000830184611d7e565b92915050565b600080600060608486031215611dc157611dc06117d7565b5b6000611dcf86828701611825565b9350506020611de08682870161185b565b9250506040611df186828701611891565b9150509250925092565b600081519050919050565b600082825260208201905092915050565b60005b83811015611e35578082015181840152602081019050611e1a565b60008484015250505050565b6000601f19601f8301169050919050565b6000611e5d82611dfb565b611e678185611e06565b9350611e77818560208601611e17565b611e8081611e41565b840191505092915050565b60006020820190508181036000830152611ea58184611e52565b905092915050565b7f61756374696f6e206e6f7420656e646564207965740000000000000000000000600082015250565b6000611ee3601583611e06565b9150611eee82611ead565b602082019050919050565b60006020820190508181036000830152611f1281611ed6565b9050919050565b7f63616c6c6572206e6f7420626964646572000000000000000000000000000000600082015250565b6000611f4f601183611e06565b9150611f5a82611f19565b602082019050919050565b60006020820190508181036000830152611f7e81611f42565b9050919050565b6000819050919050565b611fa0611f9b8261183a565b611f85565b82525050565b6000819050919050565b611fc1611fbc82611870565b611fa6565b82525050565b6000611fd38285611f8f565b602082019150611fe38284611fb0565b6020820191508190509392505050565b7f696e76616c696420626964206861736800000000000000000000000000000000600082015250565b6000612029601083611e06565b915061203482611ff3565b602082019050919050565b600060208201905081810360008301526120588161201c565b9050919050565b600060c0820190506120746000830189611a98565b6120816020830188611a41565b61208e6040830187611aa7565b61209b6060830186611a98565b6120a86080830185611aa7565b6120b560a0830184611a41565b979650505050505050565b7f6e6f206269647300000000000000000000000000000000000000000000000000600082015250565b60006120f6600783611e06565b9150612101826120c0565b602082019050919050565b60006020820190508181036000830152612125816120e9565b9050919050565b7f5265656e7472616e637947756172643a207265656e7472616e742063616c6c00600082015250565b6000612162601f83611e06565b915061216d8261212c565b602082019050919050565b6000602082019050818103600083015261219181612155565b9050919050565b6000815190506121a78161180e565b92915050565b6000602082840312156121c3576121c26117d7565b5b60006121d184828501612198565b91505092915050565b7f6e6f74206f776e65720000000000000000000000000000000000000000000000600082015250565b6000612210600983611e06565b915061221b826121da565b602082019050919050565b6000602082019050818103600083015261223f81612203565b9050919050565b7f696e76616c69642061756374696f6e2073746172742074696d65000000000000600082015250565b600061227c601a83611e06565b915061228782612246565b602082019050919050565b600060208201905081810360008301526122ab8161226f565b9050919050565b7f61756374696f6e2070726963652063616e6e6f74206265207a65726f00000000600082015250565b60006122e8601c83611e06565b91506122f3826122b2565b602082019050919050565b60006020820190508181036000830152612317816122db565b9050919050565b7f4e487b7100000000000000000000000000000000000000000000000000000000600052601160045260246000fd5b60006123588261183a565b91506123638361183a565b925082820190508082111561237b5761237a61231e565b5b92915050565b7f696e76616c69642061756374696f6e20656e642074696d650000000000000000600082015250565b60006123b7601883611e06565b91506123c282612381565b602082019050919050565b600060208201905081810360008301526123e6816123aa565b9050919050565b7f61756374696f6e20616c72656164792065786973740000000000000000000000600082015250565b6000612423601583611e06565b915061242e826123ed565b602082019050919050565b6000602082019050818103600083015261245281612416565b9050919050565b600060608201905061246e6000830186611a98565b61247b6020830185611a98565b6124886040830184611a41565b949350505050565b600060a0820190506124a56000830188611a41565b6124b26020830187611a98565b6124bf6040830186611a41565b6124cc6060830185611a41565b6124d96080830184611a41565b9695505050505050565b7f6e6f6e2d6578697374656e742061756374696f6e206974656d00000000000000600082015250565b6000612519601983611e06565b9150612524826124e3565b602082019050919050565b600060208201905081810360008301526125488161250c565b9050919050565b7f7a65726f2062696420636f6d6d69746d656e7400000000000000000000000000600082015250565b6000612585601383611e06565b91506125908261254f565b602082019050919050565b600060208201905081810360008301526125b481612578565b9050919050565b60006020820190506125d06000830184611a98565b92915050565b6000815190506125e581611844565b92915050565b600060208284031215612601576126006117d7565b5b600061260f848285016125d6565b91505092915050565b7f6c6f7720555344542062616c0000000000000000000000000000000000000000600082015250565b600061264e600c83611e06565b915061265982612618565b602082019050919050565b6000602082019050818103600083015261267d81612641565b9050919050565b7f73656c6c65722063616e6e6f7420626964000000000000000000000000000000600082015250565b60006126ba601183611e06565b91506126c582612684565b602082019050919050565b600060208201905081810360008301526126e9816126ad565b9050919050565b7f61756374696f6e2069732066696e697368656400000000000000000000000000600082015250565b6000612726601383611e06565b9150612731826126f0565b602082019050919050565b6000602082019050818103600083015261275581612719565b9050919050565b7f616c726561647920637265617465642062696400000000000000000000000000600082015250565b6000612792601383611e06565b915061279d8261275c565b602082019050919050565b600060208201905081810360008301526127c181612785565b9050919050565b60008160601b9050919050565b60006127e0826127c8565b9050919050565b60006127f2826127d5565b9050919050565b61280a612805826117fc565b6127e7565b82525050565b600061281c82856127f9565b60148201915061282c8284611fb0565b602082019150819050939250505056fea2646970667358221220fc5324712ef31873949993853ec940cf603c5120a7d718e27fe4b5716719816e64736f6c63430008110033",
	"linkReferences": {},
	"deployedLinkReferences": {}
}