{
	"_format": "hh-sol-artifact-1",
	"contractName": "NFTContract",
	"sourceName": "contracts/NFTContract.sol",
	"abi": [
		{
			"inputs": [
				{
					"internalType": "string",
					"name": "name_",
					"type": "string"
				},
				{
					"internalType": "string",
					"name": "symbol_",
					"type": "string"
				}
			],
			"stateMutability": "nonpayable",
			"type": "constructor"
		},
		{
			"anonymous": false,
			"inputs": [
				{
					"indexed": true,
					"internalType": "address",
					"name": "owner",
					"type": "address"
				},
				{
					"indexed": true,
					"internalType": "address",
					"name": "approved",
					"type": "address"
				},
				{
					"indexed": true,
					"internalType": "uint256",
					"name": "tokenId",
					"type": "uint256"
				}
			],
			"name": "Approval",
			"type": "event"
		},
		{
			"anonymous": false,
			"inputs": [
				{
					"indexed": true,
					"internalType": "address",
					"name": "owner",
					"type": "address"
				},
				{
					"indexed": true,
					"internalType": "address",
					"name": "operator",
					"type": "address"
				},
				{
					"indexed": false,
					"internalType": "bool",
					"name": "approved",
					"type": "bool"
				}
			],
			"name": "ApprovalForAll",
			"type": "event"
		},
		{
			"anonymous": false,
			"inputs": [
				{
					"indexed": true,
					"internalType": "address",
					"name": "from",
					"type": "address"
				},
				{
					"indexed": true,
					"internalType": "address",
					"name": "to",
					"type": "address"
				},
				{
					"indexed": true,
					"internalType": "uint256",
					"name": "tokenId",
					"type": "uint256"
				}
			],
			"name": "Transfer",
			"type": "event"
		},
		{
			"inputs": [],
			"name": "MAX_SUPPLY",
			"outputs": [
				{
					"internalType": "uint256",
					"name": "",
					"type": "uint256"
				}
			],
			"stateMutability": "view",
			"type": "function"
		},
		{
			"inputs": [
				{
					"internalType": "address",
					"name": "to",
					"type": "address"
				},
				{
					"internalType": "uint256",
					"name": "tokenId",
					"type": "uint256"
				}
			],
			"name": "approve",
			"outputs": [],
			"stateMutability": "nonpayable",
			"type": "function"
		},
		{
			"inputs": [
				{
					"internalType": "address",
					"name": "owner",
					"type": "address"
				}
			],
			"name": "balanceOf",
			"outputs": [
				{
					"internalType": "uint256",
					"name": "",
					"type": "uint256"
				}
			],
			"stateMutability": "view",
			"type": "function"
		},
		{
			"inputs": [
				{
					"internalType": "uint256",
					"name": "tokenId",
					"type": "uint256"
				}
			],
			"name": "getApproved",
			"outputs": [
				{
					"internalType": "address",
					"name": "",
					"type": "address"
				}
			],
			"stateMutability": "view",
			"type": "function"
		},
		{
			"inputs": [
				{
					"internalType": "uint256",
					"name": "tokenId",
					"type": "uint256"
				}
			],
			"name": "getTokenURI",
			"outputs": [
				{
					"internalType": "string",
					"name": "",
					"type": "string"
				}
			],
			"stateMutability": "view",
			"type": "function"
		},
		{
			"inputs": [],
			"name": "getTotalMinted",
			"outputs": [
				{
					"internalType": "uint256",
					"name": "",
					"type": "uint256"
				}
			],
			"stateMutability": "view",
			"type": "function"
		},
		{
			"inputs": [
				{
					"internalType": "address",
					"name": "owner",
					"type": "address"
				},
				{
					"internalType": "address",
					"name": "operator",
					"type": "address"
				}
			],
			"name": "isApprovedForAll",
			"outputs": [
				{
					"internalType": "bool",
					"name": "",
					"type": "bool"
				}
			],
			"stateMutability": "view",
			"type": "function"
		},
		{
			"inputs": [],
			"name": "mintNFT",
			"outputs": [],
			"stateMutability": "nonpayable",
			"type": "function"
		},
		{
			"inputs": [],
			"name": "name",
			"outputs": [
				{
					"internalType": "string",
					"name": "",
					"type": "string"
				}
			],
			"stateMutability": "view",
			"type": "function"
		},
		{
			"inputs": [
				{
					"internalType": "uint256",
					"name": "tokenId",
					"type": "uint256"
				}
			],
			"name": "ownerOf",
			"outputs": [
				{
					"internalType": "address",
					"name": "",
					"type": "address"
				}
			],
			"stateMutability": "view",
			"type": "function"
		},
		{
			"inputs": [
				{
					"internalType": "address",
					"name": "from",
					"type": "address"
				},
				{
					"internalType": "address",
					"name": "to",
					"type": "address"
				},
				{
					"internalType": "uint256",
					"name": "tokenId",
					"type": "uint256"
				}
			],
			"name": "safeTransferFrom",
			"outputs": [],
			"stateMutability": "nonpayable",
			"type": "function"
		},
		{
			"inputs": [
				{
					"internalType": "address",
					"name": "from",
					"type": "address"
				},
				{
					"internalType": "address",
					"name": "to",
					"type": "address"
				},
				{
					"internalType": "uint256",
					"name": "tokenId",
					"type": "uint256"
				},
				{
					"internalType": "bytes",
					"name": "data",
					"type": "bytes"
				}
			],
			"name": "safeTransferFrom",
			"outputs": [],
			"stateMutability": "nonpayable",
			"type": "function"
		},
		{
			"inputs": [
				{
					"internalType": "address",
					"name": "operator",
					"type": "address"
				},
				{
					"internalType": "bool",
					"name": "approved",
					"type": "bool"
				}
			],
			"name": "setApprovalForAll",
			"outputs": [],
			"stateMutability": "nonpayable",
			"type": "function"
		},
		{
			"inputs": [],
			"name": "setTokenURI",
			"outputs": [],
			"stateMutability": "nonpayable",
			"type": "function"
		},
		{
			"inputs": [
				{
					"internalType": "bytes4",
					"name": "interfaceId",
					"type": "bytes4"
				}
			],
			"name": "supportsInterface",
			"outputs": [
				{
					"internalType": "bool",
					"name": "",
					"type": "bool"
				}
			],
			"stateMutability": "view",
			"type": "function"
		},
		{
			"inputs": [],
			"name": "symbol",
			"outputs": [
				{
					"internalType": "string",
					"name": "",
					"type": "string"
				}
			],
			"stateMutability": "view",
			"type": "function"
		},
		{
			"inputs": [
				{
					"internalType": "uint256",
					"name": "tokenId",
					"type": "uint256"
				}
			],
			"name": "tokenURI",
			"outputs": [
				{
					"internalType": "string",
					"name": "",
					"type": "string"
				}
			],
			"stateMutability": "view",
			"type": "function"
		},
		{
			"inputs": [
				{
					"internalType": "uint256",
					"name": "",
					"type": "uint256"
				}
			],
			"name": "tokenUriArray",
			"outputs": [
				{
					"internalType": "string",
					"name": "",
					"type": "string"
				}
			],
			"stateMutability": "view",
			"type": "function"
		},
		{
			"inputs": [],
			"name": "totalMinted",
			"outputs": [
				{
					"internalType": "uint256",
					"name": "",
					"type": "uint256"
				}
			],
			"stateMutability": "view",
			"type": "function"
		},
		{
			"inputs": [
				{
					"internalType": "address",
					"name": "from",
					"type": "address"
				},
				{
					"internalType": "address",
					"name": "to",
					"type": "address"
				},
				{
					"internalType": "uint256",
					"name": "tokenId",
					"type": "uint256"
				}
			],
			"name": "transferFrom",
			"outputs": [],
			"stateMutability": "nonpayable",
			"type": "function"
		}
	],
	"bytecode": "0x60806040526040518060200160405280604051806080016040528060438152602001620033636043913981525060099060016200003e929190620000a2565b503480156200004c57600080fd5b50604051620033a6380380620033a6833981810160405281019062000072919062000315565b81818160009081620000859190620005e5565b508060019081620000979190620005e5565b5050505050620006cc565b8260038101928215620000e2579160200282015b82811115620000e1578251829081620000d09190620005e5565b5091602001919060010190620000b6565b5b509050620000f19190620000f5565b5090565b5b808211156200011957600081816200010f91906200011d565b50600101620000f6565b5090565b5080546200012b90620003d4565b6000825580601f106200013f575062000160565b601f0160209004906000526020600020908101906200015f919062000163565b5b50565b5b808211156200017e57600081600090555060010162000164565b5090565b6000604051905090565b600080fd5b600080fd5b600080fd5b600080fd5b6000601f19601f8301169050919050565b7f4e487b7100000000000000000000000000000000000000000000000000000000600052604160045260246000fd5b620001eb82620001a0565b810181811067ffffffffffffffff821117156200020d576200020c620001b1565b5b80604052505050565b60006200022262000182565b9050620002308282620001e0565b919050565b600067ffffffffffffffff821115620002535762000252620001b1565b5b6200025e82620001a0565b9050602081019050919050565b60005b838110156200028b5780820151818401526020810190506200026e565b60008484015250505050565b6000620002ae620002a88462000235565b62000216565b905082815260208101848484011115620002cd57620002cc6200019b565b5b620002da8482856200026b565b509392505050565b600082601f830112620002fa57620002f962000196565b5b81516200030c84826020860162000297565b91505092915050565b600080604083850312156200032f576200032e6200018c565b5b600083015167ffffffffffffffff81111562000350576200034f62000191565b5b6200035e85828601620002e2565b925050602083015167ffffffffffffffff81111562000382576200038162000191565b5b6200039085828601620002e2565b9150509250929050565b600081519050919050565b7f4e487b7100000000000000000000000000000000000000000000000000000000600052602260045260246000fd5b60006002820490506001821680620003ed57607f821691505b602082108103620004035762000402620003a5565b5b50919050565b60008190508160005260206000209050919050565b60006020601f8301049050919050565b600082821b905092915050565b6000600883026200046d7fffffffffffffffffffffffffffffffffffffffffffffffffffffffffffffffff826200042e565b6200047986836200042e565b95508019841693508086168417925050509392505050565b6000819050919050565b6000819050919050565b6000620004c6620004c0620004ba8462000491565b6200049b565b62000491565b9050919050565b6000819050919050565b620004e283620004a5565b620004fa620004f182620004cd565b8484546200043b565b825550505050565b600090565b6200051162000502565b6200051e818484620004d7565b505050565b5b8181101562000546576200053a60008262000507565b60018101905062000524565b5050565b601f82111562000595576200055f8162000409565b6200056a846200041e565b810160208510156200057a578190505b6200059262000589856200041e565b83018262000523565b50505b505050565b600082821c905092915050565b6000620005ba600019846008026200059a565b1980831691505092915050565b6000620005d58383620005a7565b9150826002028217905092915050565b620005f0826200039a565b67ffffffffffffffff8111156200060c576200060b620001b1565b5b620006188254620003d4565b620006258282856200054a565b600060209050601f8311600181146200065d576000841562000648578287015190505b620006548582620005c7565b865550620006c4565b601f1984166200066d8662000409565b60005b82811015620006975784890151825560018201915060208501945060208101905062000670565b86831015620006b75784890151620006b3601f891682620005a7565b8355505b6001600288020188555050505b505050505050565b612c8780620006dc6000396000f3fe608060405234801561001057600080fd5b506004361061012c5760003560e01c806342842e0e116100ad578063a22cb46511610071578063a22cb46514610331578063a2309ff81461034d578063b88d4fde1461036b578063c87b56dd14610387578063e985e9c5146103b75761012c565b806342842e0e1461028d57806355370ff2146102a95780636352211e146102b357806370a08231146102e357806395d89b41146103135761012c565b806314f710fe116100f457806314f710fe146101e957806323b872dd146101f3578063316ead1e1461020f57806332cb6b0c1461023f5780633bb3a24d1461025d5761012c565b806301ffc9a71461013157806306fdde0314610161578063081812fc1461017f578063095ea7b3146101af5780630ca1c5c9146101cb575b600080fd5b61014b60048036038101906101469190611a54565b6103e7565b6040516101589190611a9c565b60405180910390f35b6101696104c9565b6040516101769190611b47565b60405180910390f35b61019960048036038101906101949190611b9f565b61055b565b6040516101a69190611c0d565b60405180910390f35b6101c960048036038101906101c49190611c54565b6105a1565b005b6101d36106b8565b6040516101e09190611ca3565b60405180910390f35b6101f16106c2565b005b61020d60048036038101906102089190611cbe565b61074e565b005b61022960048036038101906102249190611b9f565b6107ae565b6040516102369190611b47565b60405180910390f35b610247610851565b6040516102549190611ca3565b60405180910390f35b61027760048036038101906102729190611b9f565b610857565b6040516102849190611b47565b60405180910390f35b6102a760048036038101906102a29190611cbe565b610869565b005b6102b1610889565b005b6102cd60048036038101906102c89190611b9f565b6108af565b6040516102da9190611c0d565b60405180910390f35b6102fd60048036038101906102f89190611d11565b610960565b60405161030a9190611ca3565b60405180910390f35b61031b610a17565b6040516103289190611b47565b60405180910390f35b61034b60048036038101906103469190611d6a565b610aa9565b005b610355610abf565b6040516103629190611ca3565b60405180910390f35b61038560048036038101906103809190611edf565b610ac5565b005b6103a1600480360381019061039c9190611b9f565b610b27565b6040516103ae9190611b47565b60405180910390f35b6103d160048036038101906103cc9190611f62565b610c39565b6040516103de9190611a9c565b60405180910390f35b60007f80ac58cd000000000000000000000000000000000000000000000000000000007bffffffffffffffffffffffffffffffffffffffffffffffffffffffff1916827bffffffffffffffffffffffffffffffffffffffffffffffffffffffff191614806104b257507f5b5e139f000000000000000000000000000000000000000000000000000000007bffffffffffffffffffffffffffffffffffffffffffffffffffffffff1916827bffffffffffffffffffffffffffffffffffffffffffffffffffffffff1916145b806104c257506104c182610ccd565b5b9050919050565b6060600080546104d890611fd1565b80601f016020809104026020016040519081016040528092919081815260200182805461050490611fd1565b80156105515780601f1061052657610100808354040283529160200191610551565b820191906000526020600020905b81548152906001019060200180831161053457829003601f168201915b5050505050905090565b600061056682610d37565b6004600083815260200190815260200160002060009054906101000a900473ffffffffffffffffffffffffffffffffffffffff169050919050565b60006105ac826108af565b90508073ffffffffffffffffffffffffffffffffffffffff168373ffffffffffffffffffffffffffffffffffffffff160361061c576040517f08c379a000000000000000000000000000000000000000000000000000000000815260040161061390612074565b60405180910390fd5b8073ffffffffffffffffffffffffffffffffffffffff1661063b610d82565b73ffffffffffffffffffffffffffffffffffffffff16148061066a575061066981610664610d82565b610c39565b5b6106a9576040517f08c379a00000000000000000000000000000000000000000000000000000000081526004016106a090612106565b60405180910390fd5b6106b38383610d8a565b505050565b6000600854905090565b60006106ce6007610e43565b90506103e8811115610715576040517f08c379a000000000000000000000000000000000000000000000000000000000815260040161070c90612172565b60405180910390fd5b61071f3382610e51565b6107296007610e6f565b610731610889565b60016008600082825461074491906121c1565b9250508190555050565b61075f610759610d82565b82610e85565b61079e576040517f08c379a000000000000000000000000000000000000000000000000000000000815260040161079590612267565b60405180910390fd5b6107a9838383610f1a565b505050565b600981600381106107be57600080fd5b0160009150905080546107d090611fd1565b80601f01602080910402602001604051908101604052809291908181526020018280546107fc90611fd1565b80156108495780601f1061081e57610100808354040283529160200191610849565b820191906000526020600020905b81548152906001019060200180831161082c57829003601f168201915b505050505081565b6103e881565b606061086282610b27565b9050919050565b61088483838360405180602001604052806000815250610ac5565b505050565b6108ad600854604051806080016040528060438152602001612c0f60439139611180565b565b6000806002600084815260200190815260200160002060009054906101000a900473ffffffffffffffffffffffffffffffffffffffff169050600073ffffffffffffffffffffffffffffffffffffffff168173ffffffffffffffffffffffffffffffffffffffff1603610957576040517f08c379a000000000000000000000000000000000000000000000000000000000815260040161094e906122d3565b60405180910390fd5b80915050919050565b60008073ffffffffffffffffffffffffffffffffffffffff168273ffffffffffffffffffffffffffffffffffffffff16036109d0576040517f08c379a00000000000000000000000000000000000000000000000000000000081526004016109c790612365565b60405180910390fd5b600360008373ffffffffffffffffffffffffffffffffffffffff1673ffffffffffffffffffffffffffffffffffffffff168152602001908152602001600020549050919050565b606060018054610a2690611fd1565b80601f0160208091040260200160405190810160405280929190818152602001828054610a5290611fd1565b8015610a9f5780601f10610a7457610100808354040283529160200191610a9f565b820191906000526020600020905b815481529060010190602001808311610a8257829003601f168201915b5050505050905090565b610abb610ab4610d82565b83836111ed565b5050565b60085481565b610ad6610ad0610d82565b83610e85565b610b15576040517f08c379a0000000000000000000000000000000000000000000000000000000008152600401610b0c90612267565b60405180910390fd5b610b2184848484611359565b50505050565b6060610b3282610d37565b6000600660008481526020019081526020016000208054610b5290611fd1565b80601f0160208091040260200160405190810160405280929190818152602001828054610b7e90611fd1565b8015610bcb5780601f10610ba057610100808354040283529160200191610bcb565b820191906000526020600020905b815481529060010190602001808311610bae57829003601f168201915b505050505090506000610bdc6113b5565b90506000815103610bf1578192505050610c34565b600082511115610c26578082604051602001610c0e9291906123c1565b60405160208183030381529060405292505050610c34565b610c2f846113cc565b925050505b919050565b6000600560008473ffffffffffffffffffffffffffffffffffffffff1673ffffffffffffffffffffffffffffffffffffffff16815260200190815260200160002060008373ffffffffffffffffffffffffffffffffffffffff1673ffffffffffffffffffffffffffffffffffffffff16815260200190815260200160002060009054906101000a900460ff16905092915050565b60007f01ffc9a7000000000000000000000000000000000000000000000000000000007bffffffffffffffffffffffffffffffffffffffffffffffffffffffff1916827bffffffffffffffffffffffffffffffffffffffffffffffffffffffff1916149050919050565b610d4081611434565b610d7f576040517f08c379a0000000000000000000000000000000000000000000000000000000008152600401610d76906122d3565b60405180910390fd5b50565b600033905090565b816004600083815260200190815260200160002060006101000a81548173ffffffffffffffffffffffffffffffffffffffff021916908373ffffffffffffffffffffffffffffffffffffffff160217905550808273ffffffffffffffffffffffffffffffffffffffff16610dfd836108af565b73ffffffffffffffffffffffffffffffffffffffff167f8c5be1e5ebec7d5bd14f71427d1e84f3dd0314c0f7b2291e5b200ac8c7c3b92560405160405180910390a45050565b600081600001549050919050565b610e6b8282604051806020016040528060008152506114a0565b5050565b6001816000016000828254019250508190555050565b600080610e91836108af565b90508073ffffffffffffffffffffffffffffffffffffffff168473ffffffffffffffffffffffffffffffffffffffff161480610ed35750610ed28185610c39565b5b80610f1157508373ffffffffffffffffffffffffffffffffffffffff16610ef98461055b565b73ffffffffffffffffffffffffffffffffffffffff16145b91505092915050565b8273ffffffffffffffffffffffffffffffffffffffff16610f3a826108af565b73ffffffffffffffffffffffffffffffffffffffff1614610f90576040517f08c379a0000000000000000000000000000000000000000000000000000000008152600401610f8790612457565b60405180910390fd5b600073ffffffffffffffffffffffffffffffffffffffff168273ffffffffffffffffffffffffffffffffffffffff1603610fff576040517f08c379a0000000000000000000000000000000000000000000000000000000008152600401610ff6906124e9565b60405180910390fd5b61100a8383836114fb565b611015600082610d8a565b6001600360008573ffffffffffffffffffffffffffffffffffffffff1673ffffffffffffffffffffffffffffffffffffffff16815260200190815260200160002060008282546110659190612509565b925050819055506001600360008473ffffffffffffffffffffffffffffffffffffffff1673ffffffffffffffffffffffffffffffffffffffff16815260200190815260200160002060008282546110bc91906121c1565b92505081905550816002600083815260200190815260200160002060006101000a81548173ffffffffffffffffffffffffffffffffffffffff021916908373ffffffffffffffffffffffffffffffffffffffff160217905550808273ffffffffffffffffffffffffffffffffffffffff168473ffffffffffffffffffffffffffffffffffffffff167fddf252ad1be2c89b69c2b068fc378daa952ba7f163c4a11628f55a4df523b3ef60405160405180910390a461117b838383611500565b505050565b61118982611434565b6111c8576040517f08c379a00000000000000000000000000000000000000000000000000000000081526004016111bf906125af565b60405180910390fd5b806006600084815260200190815260200160002090816111e8919061277b565b505050565b8173ffffffffffffffffffffffffffffffffffffffff168373ffffffffffffffffffffffffffffffffffffffff160361125b576040517f08c379a000000000000000000000000000000000000000000000000000000000815260040161125290612899565b60405180910390fd5b80600560008573ffffffffffffffffffffffffffffffffffffffff1673ffffffffffffffffffffffffffffffffffffffff16815260200190815260200160002060008473ffffffffffffffffffffffffffffffffffffffff1673ffffffffffffffffffffffffffffffffffffffff16815260200190815260200160002060006101000a81548160ff0219169083151502179055508173ffffffffffffffffffffffffffffffffffffffff168373ffffffffffffffffffffffffffffffffffffffff167f17307eab39ab6107e8899845ad3d59bd9653f200f220920489ca2b5937696c318360405161134c9190611a9c565b60405180910390a3505050565b611364848484610f1a565b61137084848484611505565b6113af576040517f08c379a00000000000000000000000000000000000000000000000000000000081526004016113a69061292b565b60405180910390fd5b50505050565b606060405180602001604052806000815250905090565b60606113d782610d37565b60006113e16113b5565b90506000815111611401576040518060200160405280600081525061142c565b8061140b8461168c565b60405160200161141c9291906123c1565b6040516020818303038152906040525b915050919050565b60008073ffffffffffffffffffffffffffffffffffffffff166002600084815260200190815260200160002060009054906101000a900473ffffffffffffffffffffffffffffffffffffffff1673ffffffffffffffffffffffffffffffffffffffff1614159050919050565b6114aa83836117ec565b6114b76000848484611505565b6114f6576040517f08c379a00000000000000000000000000000000000000000000000000000000081526004016114ed9061292b565b60405180910390fd5b505050565b505050565b505050565b60006115268473ffffffffffffffffffffffffffffffffffffffff166119c5565b1561167f578373ffffffffffffffffffffffffffffffffffffffff1663150b7a0261154f610d82565b8786866040518563ffffffff1660e01b815260040161157194939291906129a0565b6020604051808303816000875af19250505080156115ad57506040513d601f19601f820116820180604052508101906115aa9190612a01565b60015b61162f573d80600081146115dd576040519150601f19603f3d011682016040523d82523d6000602084013e6115e2565b606091505b506000815103611627576040517f08c379a000000000000000000000000000000000000000000000000000000000815260040161161e9061292b565b60405180910390fd5b805181602001fd5b63150b7a0260e01b7bffffffffffffffffffffffffffffffffffffffffffffffffffffffff1916817bffffffffffffffffffffffffffffffffffffffffffffffffffffffff191614915050611684565b600190505b949350505050565b6060600082036116d3576040518060400160405280600181526020017f300000000000000000000000000000000000000000000000000000000000000081525090506117e7565b600082905060005b600082146117055780806116ee90612a2e565b915050600a826116fe9190612aa5565b91506116db565b60008167ffffffffffffffff81111561172157611720611db4565b5b6040519080825280601f01601f1916602001820160405280156117535781602001600182028036833780820191505090505b5090505b600085146117e05760018261176c9190612509565b9150600a8561177b9190612ad6565b603061178791906121c1565b60f81b81838151811061179d5761179c612b07565b5b60200101907effffffffffffffffffffffffffffffffffffffffffffffffffffffffffffff1916908160001a905350600a856117d99190612aa5565b9450611757565b8093505050505b919050565b600073ffffffffffffffffffffffffffffffffffffffff168273ffffffffffffffffffffffffffffffffffffffff160361185b576040517f08c379a000000000000000000000000000000000000000000000000000000000815260040161185290612b82565b60405180910390fd5b61186481611434565b156118a4576040517f08c379a000000000000000000000000000000000000000000000000000000000815260040161189b90612bee565b60405180910390fd5b6118b0600083836114fb565b6001600360008473ffffffffffffffffffffffffffffffffffffffff1673ffffffffffffffffffffffffffffffffffffffff168152602001908152602001600020600082825461190091906121c1565b92505081905550816002600083815260200190815260200160002060006101000a81548173ffffffffffffffffffffffffffffffffffffffff021916908373ffffffffffffffffffffffffffffffffffffffff160217905550808273ffffffffffffffffffffffffffffffffffffffff16600073ffffffffffffffffffffffffffffffffffffffff167fddf252ad1be2c89b69c2b068fc378daa952ba7f163c4a11628f55a4df523b3ef60405160405180910390a46119c160008383611500565b5050565b6000808273ffffffffffffffffffffffffffffffffffffffff163b119050919050565b6000604051905090565b600080fd5b600080fd5b60007fffffffff0000000000000000000000000000000000000000000000000000000082169050919050565b611a31816119fc565b8114611a3c57600080fd5b50565b600081359050611a4e81611a28565b92915050565b600060208284031215611a6a57611a696119f2565b5b6000611a7884828501611a3f565b91505092915050565b60008115159050919050565b611a9681611a81565b82525050565b6000602082019050611ab16000830184611a8d565b92915050565b600081519050919050565b600082825260208201905092915050565b60005b83811015611af1578082015181840152602081019050611ad6565b60008484015250505050565b6000601f19601f8301169050919050565b6000611b1982611ab7565b611b238185611ac2565b9350611b33818560208601611ad3565b611b3c81611afd565b840191505092915050565b60006020820190508181036000830152611b618184611b0e565b905092915050565b6000819050919050565b611b7c81611b69565b8114611b8757600080fd5b50565b600081359050611b9981611b73565b92915050565b600060208284031215611bb557611bb46119f2565b5b6000611bc384828501611b8a565b91505092915050565b600073ffffffffffffffffffffffffffffffffffffffff82169050919050565b6000611bf782611bcc565b9050919050565b611c0781611bec565b82525050565b6000602082019050611c226000830184611bfe565b92915050565b611c3181611bec565b8114611c3c57600080fd5b50565b600081359050611c4e81611c28565b92915050565b60008060408385031215611c6b57611c6a6119f2565b5b6000611c7985828601611c3f565b9250506020611c8a85828601611b8a565b9150509250929050565b611c9d81611b69565b82525050565b6000602082019050611cb86000830184611c94565b92915050565b600080600060608486031215611cd757611cd66119f2565b5b6000611ce586828701611c3f565b9350506020611cf686828701611c3f565b9250506040611d0786828701611b8a565b9150509250925092565b600060208284031215611d2757611d266119f2565b5b6000611d3584828501611c3f565b91505092915050565b611d4781611a81565b8114611d5257600080fd5b50565b600081359050611d6481611d3e565b92915050565b60008060408385031215611d8157611d806119f2565b5b6000611d8f85828601611c3f565b9250506020611da085828601611d55565b9150509250929050565b600080fd5b600080fd5b7f4e487b7100000000000000000000000000000000000000000000000000000000600052604160045260246000fd5b611dec82611afd565b810181811067ffffffffffffffff82111715611e0b57611e0a611db4565b5b80604052505050565b6000611e1e6119e8565b9050611e2a8282611de3565b919050565b600067ffffffffffffffff821115611e4a57611e49611db4565b5b611e5382611afd565b9050602081019050919050565b82818337600083830152505050565b6000611e82611e7d84611e2f565b611e14565b905082815260208101848484011115611e9e57611e9d611daf565b5b611ea9848285611e60565b509392505050565b600082601f830112611ec657611ec5611daa565b5b8135611ed6848260208601611e6f565b91505092915050565b60008060008060808587031215611ef957611ef86119f2565b5b6000611f0787828801611c3f565b9450506020611f1887828801611c3f565b9350506040611f2987828801611b8a565b925050606085013567ffffffffffffffff811115611f4a57611f496119f7565b5b611f5687828801611eb1565b91505092959194509250565b60008060408385031215611f7957611f786119f2565b5b6000611f8785828601611c3f565b9250506020611f9885828601611c3f565b9150509250929050565b7f4e487b7100000000000000000000000000000000000000000000000000000000600052602260045260246000fd5b60006002820490506001821680611fe957607f821691505b602082108103611ffc57611ffb611fa2565b5b50919050565b7f4552433732313a20617070726f76616c20746f2063757272656e74206f776e6560008201527f7200000000000000000000000000000000000000000000000000000000000000602082015250565b600061205e602183611ac2565b915061206982612002565b604082019050919050565b6000602082019050818103600083015261208d81612051565b9050919050565b7f4552433732313a20617070726f76652063616c6c6572206973206e6f7420746f60008201527f6b656e206f776e6572206e6f7220617070726f76656420666f7220616c6c0000602082015250565b60006120f0603e83611ac2565b91506120fb82612094565b604082019050919050565b6000602082019050818103600083015261211f816120e3565b9050919050565b7f6c696d6974206578636565646564000000000000000000000000000000000000600082015250565b600061215c600e83611ac2565b915061216782612126565b602082019050919050565b6000602082019050818103600083015261218b8161214f565b9050919050565b7f4e487b7100000000000000000000000000000000000000000000000000000000600052601160045260246000fd5b60006121cc82611b69565b91506121d783611b69565b92508282019050808211156121ef576121ee612192565b5b92915050565b7f4552433732313a2063616c6c6572206973206e6f7420746f6b656e206f776e6560008201527f72206e6f7220617070726f766564000000000000000000000000000000000000602082015250565b6000612251602e83611ac2565b915061225c826121f5565b604082019050919050565b6000602082019050818103600083015261228081612244565b9050919050565b7f4552433732313a20696e76616c696420746f6b656e2049440000000000000000600082015250565b60006122bd601883611ac2565b91506122c882612287565b602082019050919050565b600060208201905081810360008301526122ec816122b0565b9050919050565b7f4552433732313a2061646472657373207a65726f206973206e6f74206120766160008201527f6c6964206f776e65720000000000000000000000000000000000000000000000602082015250565b600061234f602983611ac2565b915061235a826122f3565b604082019050919050565b6000602082019050818103600083015261237e81612342565b9050919050565b600081905092915050565b600061239b82611ab7565b6123a58185612385565b93506123b5818560208601611ad3565b80840191505092915050565b60006123cd8285612390565b91506123d98284612390565b91508190509392505050565b7f4552433732313a207472616e736665722066726f6d20696e636f72726563742060008201527f6f776e6572000000000000000000000000000000000000000000000000000000602082015250565b6000612441602583611ac2565b915061244c826123e5565b604082019050919050565b6000602082019050818103600083015261247081612434565b9050919050565b7f4552433732313a207472616e7366657220746f20746865207a65726f2061646460008201527f7265737300000000000000000000000000000000000000000000000000000000602082015250565b60006124d3602483611ac2565b91506124de82612477565b604082019050919050565b60006020820190508181036000830152612502816124c6565b9050919050565b600061251482611b69565b915061251f83611b69565b925082820390508181111561253757612536612192565b5b92915050565b7f45524337323155524953746f726167653a2055524920736574206f66206e6f6e60008201527f6578697374656e7420746f6b656e000000000000000000000000000000000000602082015250565b6000612599602e83611ac2565b91506125a48261253d565b604082019050919050565b600060208201905081810360008301526125c88161258c565b9050919050565b60008190508160005260206000209050919050565b60006020601f8301049050919050565b600082821b905092915050565b6000600883026126317fffffffffffffffffffffffffffffffffffffffffffffffffffffffffffffffff826125f4565b61263b86836125f4565b95508019841693508086168417925050509392505050565b6000819050919050565b600061267861267361266e84611b69565b612653565b611b69565b9050919050565b6000819050919050565b6126928361265d565b6126a661269e8261267f565b848454612601565b825550505050565b600090565b6126bb6126ae565b6126c6818484612689565b505050565b5b818110156126ea576126df6000826126b3565b6001810190506126cc565b5050565b601f82111561272f57612700816125cf565b612709846125e4565b81016020851015612718578190505b61272c612724856125e4565b8301826126cb565b50505b505050565b600082821c905092915050565b600061275260001984600802612734565b1980831691505092915050565b600061276b8383612741565b9150826002028217905092915050565b61278482611ab7565b67ffffffffffffffff81111561279d5761279c611db4565b5b6127a78254611fd1565b6127b28282856126ee565b600060209050601f8311600181146127e557600084156127d3578287015190505b6127dd858261275f565b865550612845565b601f1984166127f3866125cf565b60005b8281101561281b578489015182556001820191506020850194506020810190506127f6565b868310156128385784890151612834601f891682612741565b8355505b6001600288020188555050505b505050505050565b7f4552433732313a20617070726f766520746f2063616c6c657200000000000000600082015250565b6000612883601983611ac2565b915061288e8261284d565b602082019050919050565b600060208201905081810360008301526128b281612876565b9050919050565b7f4552433732313a207472616e7366657220746f206e6f6e20455243373231526560008201527f63656976657220696d706c656d656e7465720000000000000000000000000000602082015250565b6000612915603283611ac2565b9150612920826128b9565b604082019050919050565b6000602082019050818103600083015261294481612908565b9050919050565b600081519050919050565b600082825260208201905092915050565b60006129728261294b565b61297c8185612956565b935061298c818560208601611ad3565b61299581611afd565b840191505092915050565b60006080820190506129b56000830187611bfe565b6129c26020830186611bfe565b6129cf6040830185611c94565b81810360608301526129e18184612967565b905095945050505050565b6000815190506129fb81611a28565b92915050565b600060208284031215612a1757612a166119f2565b5b6000612a25848285016129ec565b91505092915050565b6000612a3982611b69565b91507fffffffffffffffffffffffffffffffffffffffffffffffffffffffffffffffff8203612a6b57612a6a612192565b5b600182019050919050565b7f4e487b7100000000000000000000000000000000000000000000000000000000600052601260045260246000fd5b6000612ab082611b69565b9150612abb83611b69565b925082612acb57612aca612a76565b5b828204905092915050565b6000612ae182611b69565b9150612aec83611b69565b925082612afc57612afb612a76565b5b828206905092915050565b7f4e487b7100000000000000000000000000000000000000000000000000000000600052603260045260246000fd5b7f4552433732313a206d696e7420746f20746865207a65726f2061646472657373600082015250565b6000612b6c602083611ac2565b9150612b7782612b36565b602082019050919050565b60006020820190508181036000830152612b9b81612b5f565b9050919050565b7f4552433732313a20746f6b656e20616c7265616479206d696e74656400000000600082015250565b6000612bd8601c83611ac2565b9150612be382612ba2565b602082019050919050565b60006020820190508181036000830152612c0781612bcb565b905091905056fe68747470733a2f2f697066732e696f2f697066732f516d526e3441616a344c4d75756e6f4a4c33584e7a39324e314477566469657372764d4a47796d6a3236546e4d46a264697066735822122050500b618b4137b2eac22afb9f520169763283e0bad9819a021632c3b00affd364736f6c6343000811003368747470733a2f2f697066732e696f2f697066732f516d654766544c773569384d7a394769345a724e384450504c537231384d4e3432755a4c626369726f78686e5361",
	"linkReferences": {},
	"deployedLinkReferences": {}
}